{
  "_format": "hh-sol-artifact-1",
  "contractName": "Marriage",
  "sourceName": "contracts/Marriage.sol",
  "abi": [
    {
      "anonymous": false,
      "inputs": [
        {
          "indexed": false,
          "internalType": "uint256",
          "name": "id",
          "type": "uint256"
        }
      ],
      "name": "token",
      "type": "event"
    },
    {
      "inputs": [
        {
          "internalType": "uint256",
          "name": "",
          "type": "uint256"
        }
      ],
      "name": "agreement_info",
      "outputs": [
        {
          "internalType": "uint256",
          "name": "agreement_id",
          "type": "uint256"
        },
        {
          "internalType": "address",
          "name": "husband",
          "type": "address"
        },
        {
          "internalType": "address",
          "name": "wife",
          "type": "address"
        },
        {
          "internalType": "uint256",
          "name": "timestamp",
          "type": "uint256"
        },
        {
          "internalType": "enum Marriage.State",
          "name": "state",
          "type": "uint8"
        }
      ],
      "stateMutability": "view",
      "type": "function"
    },
    {
      "inputs": [
        {
          "internalType": "uint256",
          "name": "_index",
          "type": "uint256"
        }
      ],
      "name": "getDivorced",
      "outputs": [
        {
          "internalType": "bool",
          "name": "",
          "type": "bool"
        }
      ],
      "stateMutability": "view",
      "type": "function"
    },
    {
      "inputs": [
        {
          "internalType": "uint256",
          "name": "_index",
          "type": "uint256"
        }
      ],
      "name": "getSigned",
      "outputs": [
        {
          "internalType": "bool",
          "name": "",
          "type": "bool"
        }
      ],
      "stateMutability": "view",
      "type": "function"
    },
    {
      "inputs": [
        {
          "internalType": "uint256",
          "name": "",
          "type": "uint256"
        }
      ],
      "name": "husband_info",
      "outputs": [
        {
          "internalType": "uint256",
          "name": "agreement_id",
          "type": "uint256"
        },
        {
          "internalType": "address",
          "name": "husband",
          "type": "address"
        },
        {
          "internalType": "uint256",
          "name": "aadhar",
          "type": "uint256"
        },
        {
          "internalType": "string",
          "name": "name",
          "type": "string"
        },
        {
          "internalType": "string",
          "name": "dob",
          "type": "string"
        },
        {
          "internalType": "string",
          "name": "occupation",
          "type": "string"
        },
        {
          "internalType": "string",
          "name": "addr",
          "type": "string"
        },
        {
          "internalType": "bool",
          "name": "signed",
          "type": "bool"
        },
        {
          "internalType": "bool",
          "name": "divorce",
          "type": "bool"
        }
      ],
      "stateMutability": "view",
      "type": "function"
    },
    {
      "inputs": [
        {
          "internalType": "uint256",
          "name": "_index",
          "type": "uint256"
        }
      ],
      "name": "issueDivorce",
      "outputs": [],
      "stateMutability": "nonpayable",
      "type": "function"
    },
    {
      "inputs": [
        {
          "internalType": "address",
          "name": "_husbandAddress",
          "type": "address"
        },
        {
          "internalType": "address",
          "name": "_wifeAddress",
          "type": "address"
        }
      ],
      "name": "setSpouse",
      "outputs": [],
      "stateMutability": "nonpayable",
      "type": "function"
    },
    {
      "inputs": [
        {
          "internalType": "uint256",
          "name": "_index",
          "type": "uint256"
        },
        {
          "internalType": "uint256",
          "name": "_aadhar_no",
          "type": "uint256"
        },
        {
          "internalType": "string",
          "name": "_name",
          "type": "string"
        },
        {
          "internalType": "string",
          "name": "_dob",
          "type": "string"
        },
        {
          "internalType": "string",
          "name": "_occupation",
          "type": "string"
        },
        {
          "internalType": "string",
          "name": "_addr",
          "type": "string"
        }
      ],
      "name": "signHusband",
      "outputs": [],
      "stateMutability": "nonpayable",
      "type": "function"
    },
    {
      "inputs": [
        {
          "internalType": "uint256",
          "name": "_index",
          "type": "uint256"
        },
        {
          "internalType": "uint256",
          "name": "_aadhar_no",
          "type": "uint256"
        },
        {
          "internalType": "string",
          "name": "_name",
          "type": "string"
        },
        {
          "internalType": "string",
          "name": "_dob",
          "type": "string"
        },
        {
          "internalType": "string",
          "name": "_occupation",
          "type": "string"
        },
        {
          "internalType": "string",
          "name": "_addr",
          "type": "string"
        }
      ],
      "name": "signWife",
      "outputs": [],
      "stateMutability": "nonpayable",
      "type": "function"
    },
    {
      "inputs": [
        {
          "internalType": "uint256",
          "name": "",
          "type": "uint256"
        }
      ],
      "name": "wife_info",
      "outputs": [
        {
          "internalType": "uint256",
          "name": "agreement_id",
          "type": "uint256"
        },
        {
          "internalType": "address",
          "name": "wife",
          "type": "address"
        },
        {
          "internalType": "uint256",
          "name": "aadhar",
          "type": "uint256"
        },
        {
          "internalType": "string",
          "name": "name",
          "type": "string"
        },
        {
          "internalType": "string",
          "name": "dob",
          "type": "string"
        },
        {
          "internalType": "string",
          "name": "occupation",
          "type": "string"
        },
        {
          "internalType": "string",
          "name": "addr",
          "type": "string"
        },
        {
          "internalType": "bool",
          "name": "signed",
          "type": "bool"
        },
        {
          "internalType": "bool",
          "name": "divorce",
          "type": "bool"
        }
      ],
      "stateMutability": "view",
      "type": "function"
    }
  ],
  "bytecode": "0x60806040526000805534801561001457600080fd5b5061216d806100246000396000f3fe608060405234801561001057600080fd5b50600436106100935760003560e01c8063a57493bd11610066578063a57493bd14610130578063e540400f1461014c578063ebabbbee14610180578063f4cf332b1461019c578063f4e02179146101d457610093565b80631dda17771461009857806326d11a21146100b45780636492f389146100e45780637e251c1c14610100575b600080fd5b6100b260048036038101906100ad919061159f565b61020c565b005b6100ce60048036038101906100c9919061159f565b6104f4565b6040516100db91906115e7565b60405180910390f35b6100fe60048036038101906100f99190611748565b61056c565b005b61011a6004803603810190610115919061159f565b610896565b60405161012791906115e7565b60405180910390f35b61014a60048036038101906101459190611748565b6108f9565b005b6101666004803603810190610161919061159f565b610c23565b60405161017795949392919061190c565b60405180910390f35b61019a6004803603810190610195919061198b565b610ca6565b005b6101b660048036038101906101b1919061159f565b611005565b6040516101cb99989796959493929190611a4a565b60405180910390f35b6101ee60048036038101906101e9919061159f565b6112ad565b60405161020399989796959493929190611a4a565b60405180910390f35b6003600082815260200190815260200160002060010160009054906101000a900473ffffffffffffffffffffffffffffffffffffffff1673ffffffffffffffffffffffffffffffffffffffff163373ffffffffffffffffffffffffffffffffffffffff1614806102dd57506003600082815260200190815260200160002060020160009054906101000a900473ffffffffffffffffffffffffffffffffffffffff1673ffffffffffffffffffffffffffffffffffffffff163373ffffffffffffffffffffffffffffffffffffffff16145b61031c576040517f08c379a000000000000000000000000000000000000000000000000000000000815260040161031390611b3f565b60405180910390fd5b6003600082815260200190815260200160002060010160009054906101000a900473ffffffffffffffffffffffffffffffffffffffff1673ffffffffffffffffffffffffffffffffffffffff163373ffffffffffffffffffffffffffffffffffffffff16036103b55760016004600083815260200190815260200160002060070160016101000a81548160ff0219169083151502179055505b6003600082815260200190815260200160002060020160009054906101000a900473ffffffffffffffffffffffffffffffffffffffff1673ffffffffffffffffffffffffffffffffffffffff163373ffffffffffffffffffffffffffffffffffffffff160361044e5760016005600083815260200190815260200160002060070160016101000a81548160ff0219169083151502179055505b600115156004600083815260200190815260200160002060070160019054906101000a900460ff1615151480156104ac5750600115156005600083815260200190815260200160002060070160019054906101000a900460ff161515145b156104f15760026003600083815260200190815260200160002060040160006101000a81548160ff021916908360028111156104eb576104ea611895565b5b02179055505b50565b6000600115156004600084815260200190815260200160002060070160009054906101000a900460ff1615151480156105545750600115156005600084815260200190815260200160002060070160009054906101000a900460ff161515145b156105625760019050610567565b600090505b919050565b600073ffffffffffffffffffffffffffffffffffffffff163373ffffffffffffffffffffffffffffffffffffffff16036105a557600080fd5b6003600087815260200190815260200160002060010160009054906101000a900473ffffffffffffffffffffffffffffffffffffffff1673ffffffffffffffffffffffffffffffffffffffff163373ffffffffffffffffffffffffffffffffffffffff1614610649576040517f08c379a000000000000000000000000000000000000000000000000000000000815260040161064090611bab565b60405180910390fd5b60006003600088815260200190815260200160002060010160009054906101000a900473ffffffffffffffffffffffffffffffffffffffff1690506040518061012001604052808881526020018273ffffffffffffffffffffffffffffffffffffffff16815260200187815260200186815260200185815260200184815260200183815260200160011515815260200160001515815250600460008981526020019081526020016000206000820151816000015560208201518160010160006101000a81548173ffffffffffffffffffffffffffffffffffffffff021916908373ffffffffffffffffffffffffffffffffffffffff1602179055506040820151816002015560608201518160030190816107639190611dd7565b5060808201518160040190816107799190611dd7565b5060a082015181600501908161078f9190611dd7565b5060c08201518160060190816107a59190611dd7565b5060e08201518160070160006101000a81548160ff0219169083151502179055506101008201518160070160016101000a81548160ff021916908315150217905550905050600115156004600089815260200190815260200160002060070160009054906101000a900460ff1615151480156108485750600115156005600089815260200190815260200160002060070160009054906101000a900460ff161515145b1561088d5760016003600089815260200190815260200160002060040160006101000a81548160ff0219169083600281111561088757610886611895565b5b02179055505b50505050505050565b60006002808111156108ab576108aa611895565b5b6003600084815260200190815260200160002060040160009054906101000a900460ff1660028111156108e1576108e0611895565b5b036108ef57600190506108f4565b600090505b919050565b600073ffffffffffffffffffffffffffffffffffffffff163373ffffffffffffffffffffffffffffffffffffffff160361093257600080fd5b6003600087815260200190815260200160002060020160009054906101000a900473ffffffffffffffffffffffffffffffffffffffff1673ffffffffffffffffffffffffffffffffffffffff163373ffffffffffffffffffffffffffffffffffffffff16146109d6576040517f08c379a00000000000000000000000000000000000000000000000000000000081526004016109cd90611ef5565b60405180910390fd5b60006003600088815260200190815260200160002060020160009054906101000a900473ffffffffffffffffffffffffffffffffffffffff1690506040518061012001604052808881526020018273ffffffffffffffffffffffffffffffffffffffff16815260200187815260200186815260200185815260200184815260200183815260200160011515815260200160001515815250600560008981526020019081526020016000206000820151816000015560208201518160010160006101000a81548173ffffffffffffffffffffffffffffffffffffffff021916908373ffffffffffffffffffffffffffffffffffffffff160217905550604082015181600201556060820151816003019081610af09190611dd7565b506080820151816004019081610b069190611dd7565b5060a0820151816005019081610b1c9190611dd7565b5060c0820151816006019081610b329190611dd7565b5060e08201518160070160006101000a81548160ff0219169083151502179055506101008201518160070160016101000a81548160ff021916908315150217905550905050600115156004600089815260200190815260200160002060070160009054906101000a900460ff161515148015610bd55750600115156005600089815260200190815260200160002060070160009054906101000a900460ff161515145b15610c1a5760016003600089815260200190815260200160002060040160006101000a81548160ff02191690836002811115610c1457610c13611895565b5b02179055505b50505050505050565b60036020528060005260406000206000915090508060000154908060010160009054906101000a900473ffffffffffffffffffffffffffffffffffffffff16908060020160009054906101000a900473ffffffffffffffffffffffffffffffffffffffff16908060030154908060040160009054906101000a900460ff16905085565b600073ffffffffffffffffffffffffffffffffffffffff168273ffffffffffffffffffffffffffffffffffffffff16141580610d0f5750600073ffffffffffffffffffffffffffffffffffffffff168173ffffffffffffffffffffffffffffffffffffffff1614155b610d4e576040517f08c379a0000000000000000000000000000000000000000000000000000000008152600401610d4590611f87565b60405180910390fd5b8073ffffffffffffffffffffffffffffffffffffffff168273ffffffffffffffffffffffffffffffffffffffff1603610dbc576040517f08c379a0000000000000000000000000000000000000000000000000000000008152600401610db390612019565b60405180910390fd5b8173ffffffffffffffffffffffffffffffffffffffff163373ffffffffffffffffffffffffffffffffffffffff161480610e2157508073ffffffffffffffffffffffffffffffffffffffff163373ffffffffffffffffffffffffffffffffffffffff16145b610e60576040517f08c379a0000000000000000000000000000000000000000000000000000000008152600401610e5790612085565b60405180910390fd5b600080815480929190610e72906120d4565b91905055506040518060a0016040528060005481526020018373ffffffffffffffffffffffffffffffffffffffff1681526020018273ffffffffffffffffffffffffffffffffffffffff16815260200142815260200160006002811115610edc57610edb611895565b5b81525060036000805481526020019081526020016000206000820151816000015560208201518160010160006101000a81548173ffffffffffffffffffffffffffffffffffffffff021916908373ffffffffffffffffffffffffffffffffffffffff16021790555060408201518160020160006101000a81548173ffffffffffffffffffffffffffffffffffffffff021916908373ffffffffffffffffffffffffffffffffffffffff1602179055506060820151816003015560808201518160040160006101000a81548160ff02191690836002811115610fc057610fbf611895565b5b02179055509050507f044215c67d3b8d56e3fe696cb171f256405bb8bacb42fb78bfb2aa7df629eb36600054604051610ff9919061211c565b60405180910390a15050565b60046020528060005260406000206000915090508060000154908060010160009054906101000a900473ffffffffffffffffffffffffffffffffffffffff169080600201549080600301805461105a90611bfa565b80601f016020809104026020016040519081016040528092919081815260200182805461108690611bfa565b80156110d35780601f106110a8576101008083540402835291602001916110d3565b820191906000526020600020905b8154815290600101906020018083116110b657829003601f168201915b5050505050908060040180546110e890611bfa565b80601f016020809104026020016040519081016040528092919081815260200182805461111490611bfa565b80156111615780601f1061113657610100808354040283529160200191611161565b820191906000526020600020905b81548152906001019060200180831161114457829003601f168201915b50505050509080600501805461117690611bfa565b80601f01602080910402602001604051908101604052809291908181526020018280546111a290611bfa565b80156111ef5780601f106111c4576101008083540402835291602001916111ef565b820191906000526020600020905b8154815290600101906020018083116111d257829003601f168201915b50505050509080600601805461120490611bfa565b80601f016020809104026020016040519081016040528092919081815260200182805461123090611bfa565b801561127d5780601f106112525761010080835404028352916020019161127d565b820191906000526020600020905b81548152906001019060200180831161126057829003601f168201915b5050505050908060070160009054906101000a900460ff16908060070160019054906101000a900460ff16905089565b60056020528060005260406000206000915090508060000154908060010160009054906101000a900473ffffffffffffffffffffffffffffffffffffffff169080600201549080600301805461130290611bfa565b80601f016020809104026020016040519081016040528092919081815260200182805461132e90611bfa565b801561137b5780601f106113505761010080835404028352916020019161137b565b820191906000526020600020905b81548152906001019060200180831161135e57829003601f168201915b50505050509080600401805461139090611bfa565b80601f01602080910402602001604051908101604052809291908181526020018280546113bc90611bfa565b80156114095780601f106113de57610100808354040283529160200191611409565b820191906000526020600020905b8154815290600101906020018083116113ec57829003601f168201915b50505050509080600501805461141e90611bfa565b80601f016020809104026020016040519081016040528092919081815260200182805461144a90611bfa565b80156114975780601f1061146c57610100808354040283529160200191611497565b820191906000526020600020905b81548152906001019060200180831161147a57829003601f168201915b5050505050908060060180546114ac90611bfa565b80601f01602080910402602001604051908101604052809291908181526020018280546114d890611bfa565b80156115255780601f106114fa57610100808354040283529160200191611525565b820191906000526020600020905b81548152906001019060200180831161150857829003601f168201915b5050505050908060070160009054906101000a900460ff16908060070160019054906101000a900460ff16905089565b6000604051905090565b600080fd5b600080fd5b6000819050919050565b61157c81611569565b811461158757600080fd5b50565b60008135905061159981611573565b92915050565b6000602082840312156115b5576115b461155f565b5b60006115c38482850161158a565b91505092915050565b60008115159050919050565b6115e1816115cc565b82525050565b60006020820190506115fc60008301846115d8565b92915050565b600080fd5b600080fd5b6000601f19601f8301169050919050565b7f4e487b7100000000000000000000000000000000000000000000000000000000600052604160045260246000fd5b6116558261160c565b810181811067ffffffffffffffff821117156116745761167361161d565b5b80604052505050565b6000611687611555565b9050611693828261164c565b919050565b600067ffffffffffffffff8211156116b3576116b261161d565b5b6116bc8261160c565b9050602081019050919050565b82818337600083830152505050565b60006116eb6116e684611698565b61167d565b90508281526020810184848401111561170757611706611607565b5b6117128482856116c9565b509392505050565b600082601f83011261172f5761172e611602565b5b813561173f8482602086016116d8565b91505092915050565b60008060008060008060c087890312156117655761176461155f565b5b600061177389828a0161158a565b965050602061178489828a0161158a565b955050604087013567ffffffffffffffff8111156117a5576117a4611564565b5b6117b189828a0161171a565b945050606087013567ffffffffffffffff8111156117d2576117d1611564565b5b6117de89828a0161171a565b935050608087013567ffffffffffffffff8111156117ff576117fe611564565b5b61180b89828a0161171a565b92505060a087013567ffffffffffffffff81111561182c5761182b611564565b5b61183889828a0161171a565b9150509295509295509295565b61184e81611569565b82525050565b600073ffffffffffffffffffffffffffffffffffffffff82169050919050565b600061187f82611854565b9050919050565b61188f81611874565b82525050565b7f4e487b7100000000000000000000000000000000000000000000000000000000600052602160045260246000fd5b600381106118d5576118d4611895565b5b50565b60008190506118e6826118c4565b919050565b60006118f6826118d8565b9050919050565b611906816118eb565b82525050565b600060a0820190506119216000830188611845565b61192e6020830187611886565b61193b6040830186611886565b6119486060830185611845565b61195560808301846118fd565b9695505050505050565b61196881611874565b811461197357600080fd5b50565b6000813590506119858161195f565b92915050565b600080604083850312156119a2576119a161155f565b5b60006119b085828601611976565b92505060206119c185828601611976565b9150509250929050565b600081519050919050565b600082825260208201905092915050565b60005b83811015611a055780820151818401526020810190506119ea565b60008484015250505050565b6000611a1c826119cb565b611a2681856119d6565b9350611a368185602086016119e7565b611a3f8161160c565b840191505092915050565b600061012082019050611a60600083018c611845565b611a6d602083018b611886565b611a7a604083018a611845565b8181036060830152611a8c8189611a11565b90508181036080830152611aa08188611a11565b905081810360a0830152611ab48187611a11565b905081810360c0830152611ac88186611a11565b9050611ad760e08301856115d8565b611ae56101008301846115d8565b9a9950505050505050505050565b7f6f6e65206f662075206973206120667261756421000000000000000000000000600082015250565b6000611b296014836119d6565b9150611b3482611af3565b602082019050919050565b60006020820190508181036000830152611b5881611b1c565b9050919050565b7f43616e206265207369676e6564206f6e6c792062792048757362616e64000000600082015250565b6000611b95601d836119d6565b9150611ba082611b5f565b602082019050919050565b60006020820190508181036000830152611bc481611b88565b9050919050565b7f4e487b7100000000000000000000000000000000000000000000000000000000600052602260045260246000fd5b60006002820490506001821680611c1257607f821691505b602082108103611c2557611c24611bcb565b5b50919050565b60008190508160005260206000209050919050565b60006020601f8301049050919050565b600082821b905092915050565b600060088302611c8d7fffffffffffffffffffffffffffffffffffffffffffffffffffffffffffffffff82611c50565b611c978683611c50565b95508019841693508086168417925050509392505050565b6000819050919050565b6000611cd4611ccf611cca84611569565b611caf565b611569565b9050919050565b6000819050919050565b611cee83611cb9565b611d02611cfa82611cdb565b848454611c5d565b825550505050565b600090565b611d17611d0a565b611d22818484611ce5565b505050565b5b81811015611d4657611d3b600082611d0f565b600181019050611d28565b5050565b601f821115611d8b57611d5c81611c2b565b611d6584611c40565b81016020851015611d74578190505b611d88611d8085611c40565b830182611d27565b50505b505050565b600082821c905092915050565b6000611dae60001984600802611d90565b1980831691505092915050565b6000611dc78383611d9d565b9150826002028217905092915050565b611de0826119cb565b67ffffffffffffffff811115611df957611df861161d565b5b611e038254611bfa565b611e0e828285611d4a565b600060209050601f831160018114611e415760008415611e2f578287015190505b611e398582611dbb565b865550611ea1565b601f198416611e4f86611c2b565b60005b82811015611e7757848901518255600182019150602085019450602081019050611e52565b86831015611e945784890151611e90601f891682611d9d565b8355505b6001600288020188555050505b505050505050565b7f43616e206265207369676e6564206f6e6c792062792057696665000000000000600082015250565b6000611edf601a836119d6565b9150611eea82611ea9565b602082019050919050565b60006020820190508181036000830152611f0e81611ed2565b9050919050565b7f48757362616e64206f7220776966652061646472657373206d757374206e6f7460008201527f20626520456d7074792100000000000000000000000000000000000000000000602082015250565b6000611f71602a836119d6565b9150611f7c82611f15565b604082019050919050565b60006020820190508181036000830152611fa081611f64565b9050919050565b7f48757362616e642061646472657373206d757374206e6f7420657175616c207760008201527f6966652061646472657373210000000000000000000000000000000000000000602082015250565b6000612003602c836119d6565b915061200e82611fa7565b604082019050919050565b6000602082019050818103600083015261203281611ff6565b9050919050565b7f5468652061646472657373657320617265206e6f7420636f7272656374210000600082015250565b600061206f601e836119d6565b915061207a82612039565b602082019050919050565b6000602082019050818103600083015261209e81612062565b9050919050565b7f4e487b7100000000000000000000000000000000000000000000000000000000600052601160045260246000fd5b60006120df82611569565b91507fffffffffffffffffffffffffffffffffffffffffffffffffffffffffffffffff8203612111576121106120a5565b5b600182019050919050565b60006020820190506121316000830184611845565b9291505056fea26469706673582212200d16f1f9f46023bdd25908eb42dc095e2708b9ec1c7cb7be23a638ab8ac8032564736f6c63430008110033",
  "linkReferences": {},
  "deployedLinkReferences": {}
}