{
  "_format": "hh-sol-artifact-1",
  "contractName": "NewPatent",
  "sourceName": "contracts/NewPatent.sol",
  "abi": [
    {
      "anonymous": false,
      "inputs": [
        {
          "indexed": false,
          "internalType": "uint256",
          "name": "id",
          "type": "uint256"
        }
      ],
      "name": "token",
      "type": "event"
    },
    {
      "inputs": [
        {
          "internalType": "uint256",
          "name": "",
          "type": "uint256"
        }
      ],
      "name": "applicant_info",
      "outputs": [
        {
          "internalType": "uint256",
          "name": "application_id",
          "type": "uint256"
        },
        {
          "internalType": "string",
          "name": "applicantType",
          "type": "string"
        },
        {
          "internalType": "address payable",
          "name": "applicant",
          "type": "address"
        },
        {
          "internalType": "uint256",
          "name": "_aadhar_no",
          "type": "uint256"
        },
        {
          "internalType": "string",
          "name": "_Fname",
          "type": "string"
        },
        {
          "internalType": "string",
          "name": "_Faddr",
          "type": "string"
        },
        {
          "internalType": "bool",
          "name": "signed",
          "type": "bool"
        }
      ],
      "stateMutability": "view",
      "type": "function"
    },
    {
      "inputs": [
        {
          "internalType": "uint256",
          "name": "_id",
          "type": "uint256"
        }
      ],
      "name": "approve",
      "outputs": [],
      "stateMutability": "nonpayable",
      "type": "function"
    },
    {
      "inputs": [
        {
          "internalType": "uint256",
          "name": "_index",
          "type": "uint256"
        }
      ],
      "name": "getApproved",
      "outputs": [
        {
          "internalType": "bool",
          "name": "",
          "type": "bool"
        }
      ],
      "stateMutability": "view",
      "type": "function"
    },
    {
      "inputs": [
        {
          "internalType": "uint256",
          "name": "_index",
          "type": "uint256"
        }
      ],
      "name": "getRejected",
      "outputs": [
        {
          "internalType": "bool",
          "name": "",
          "type": "bool"
        }
      ],
      "stateMutability": "view",
      "type": "function"
    },
    {
      "inputs": [
        {
          "internalType": "uint256",
          "name": "_index",
          "type": "uint256"
        }
      ],
      "name": "getSigned",
      "outputs": [
        {
          "internalType": "bool",
          "name": "",
          "type": "bool"
        }
      ],
      "stateMutability": "view",
      "type": "function"
    },
    {
      "inputs": [
        {
          "internalType": "uint256",
          "name": "_id",
          "type": "uint256"
        },
        {
          "internalType": "address payable",
          "name": "_applicant",
          "type": "address"
        },
        {
          "internalType": "string",
          "name": "_inventionTitle",
          "type": "string"
        },
        {
          "internalType": "string",
          "name": "_inventionType",
          "type": "string"
        },
        {
          "internalType": "string",
          "name": "_inventionDescription",
          "type": "string"
        }
      ],
      "name": "patentData",
      "outputs": [],
      "stateMutability": "nonpayable",
      "type": "function"
    },
    {
      "inputs": [
        {
          "internalType": "uint256",
          "name": "",
          "type": "uint256"
        }
      ],
      "name": "patent_info",
      "outputs": [
        {
          "internalType": "uint256",
          "name": "application_id",
          "type": "uint256"
        },
        {
          "internalType": "address payable",
          "name": "applicant",
          "type": "address"
        },
        {
          "internalType": "string",
          "name": "inventionTitle",
          "type": "string"
        },
        {
          "internalType": "string",
          "name": "inventionType",
          "type": "string"
        },
        {
          "internalType": "string",
          "name": "inventionDescription",
          "type": "string"
        },
        {
          "internalType": "uint256",
          "name": "createdTimestamp",
          "type": "uint256"
        },
        {
          "internalType": "enum NewPatent.State",
          "name": "se",
          "type": "uint8"
        }
      ],
      "stateMutability": "view",
      "type": "function"
    },
    {
      "inputs": [
        {
          "internalType": "uint256",
          "name": "_id",
          "type": "uint256"
        }
      ],
      "name": "reject",
      "outputs": [],
      "stateMutability": "nonpayable",
      "type": "function"
    },
    {
      "inputs": [
        {
          "internalType": "address payable",
          "name": "_applicant",
          "type": "address"
        },
        {
          "internalType": "string",
          "name": "_applicantType",
          "type": "string"
        },
        {
          "internalType": "uint256",
          "name": "_aadharNo",
          "type": "uint256"
        },
        {
          "internalType": "string",
          "name": "_fName",
          "type": "string"
        },
        {
          "internalType": "string",
          "name": "_fAddr",
          "type": "string"
        }
      ],
      "name": "setAgreement",
      "outputs": [],
      "stateMutability": "nonpayable",
      "type": "function"
    },
    {
      "inputs": [],
      "name": "total_patent",
      "outputs": [
        {
          "internalType": "uint256",
          "name": "",
          "type": "uint256"
        }
      ],
      "stateMutability": "view",
      "type": "function"
    }
  ],
  "bytecode": "0x60806040526000600155600060025534801561001a57600080fd5b506117b78061002a6000396000f3fe608060405234801561001057600080fd5b506004361061009e5760003560e01c806362f4c26b1161006657806362f4c26b146101735780636970c8d0146101a3578063a3ba0a7a146101bf578063b759f954146101f5578063b8adaa11146102115761009e565b8063081812fc146100a357806326d11a21146100d357806333704b59146101035780634b2117bc146101395780635e644b9914610155575b600080fd5b6100bd60048036038101906100b89190610ce6565b61022d565b6040516100ca9190610d2e565b60405180910390f35b6100ed60048036038101906100e89190610ce6565b610291565b6040516100fa9190610d2e565b60405180910390f35b61011d60048036038101906101189190610ce6565b6102d5565b6040516101309796959493929190610ea0565b60405180910390f35b610153600480360381019061014e9190611085565b6104dc565b005b61015d61076d565b60405161016a9190611154565b60405180910390f35b61018d60048036038101906101889190610ce6565b610773565b60405161019a9190610d2e565b60405180910390f35b6101bd60048036038101906101b8919061116f565b6107d6565b005b6101d960048036038101906101d49190610ce6565b610a11565b6040516101ec979695949392919061123e565b60405180910390f35b61020f600480360381019061020a9190610ce6565b610c18565b005b61022b60048036038101906102269190610ce6565b610c5a565b005b60006001600281111561024357610242610e29565b5b6003600084815260200190815260200160002060060160009054906101000a900460ff16600281111561027957610278610e29565b5b03610287576001905061028c565b600090505b919050565b6000600115156004600084815260200190815260200160002060060160009054906101000a900460ff161515036102cb57600190506102d0565b600090505b919050565b60036020528060005260406000206000915090508060000154908060010160009054906101000a900473ffffffffffffffffffffffffffffffffffffffff1690806002018054610324906112f1565b80601f0160208091040260200160405190810160405280929190818152602001828054610350906112f1565b801561039d5780601f106103725761010080835404028352916020019161039d565b820191906000526020600020905b81548152906001019060200180831161038057829003601f168201915b5050505050908060030180546103b2906112f1565b80601f01602080910402602001604051908101604052809291908181526020018280546103de906112f1565b801561042b5780601f106104005761010080835404028352916020019161042b565b820191906000526020600020905b81548152906001019060200180831161040e57829003601f168201915b505050505090806004018054610440906112f1565b80601f016020809104026020016040519081016040528092919081815260200182805461046c906112f1565b80156104b95780601f1061048e576101008083540402835291602001916104b9565b820191906000526020600020905b81548152906001019060200180831161049c57829003601f168201915b5050505050908060050154908060060160009054906101000a900460ff16905087565b600073ffffffffffffffffffffffffffffffffffffffff163373ffffffffffffffffffffffffffffffffffffffff160361051557600080fd5b8473ffffffffffffffffffffffffffffffffffffffff163373ffffffffffffffffffffffffffffffffffffffff1614610583576040517f08c379a000000000000000000000000000000000000000000000000000000000815260040161057a90611394565b60405180910390fd5b600073ffffffffffffffffffffffffffffffffffffffff168573ffffffffffffffffffffffffffffffffffffffff16036105f2576040517f08c379a00000000000000000000000000000000000000000000000000000000081526004016105e990611400565b60405180910390fd5b600160008154809291906106059061144f565b91905055506040518060e0016040528060015481526020018581526020018673ffffffffffffffffffffffffffffffffffffffff1681526020018481526020018381526020018281526020016001151581525060046000600154815260200190815260200160002060008201518160000155602082015181600101908161068c9190611643565b5060408201518160020160006101000a81548173ffffffffffffffffffffffffffffffffffffffff021916908373ffffffffffffffffffffffffffffffffffffffff1602179055506060820151816003015560808201518160040190816106f39190611643565b5060a08201518160050190816107099190611643565b5060c08201518160060160006101000a81548160ff0219169083151502179055509050507f044215c67d3b8d56e3fe696cb171f256405bb8bacb42fb78bfb2aa7df629eb3660015460405161075e9190611154565b60405180910390a15050505050565b60025481565b600060028081111561078857610787610e29565b5b6003600084815260200190815260200160002060060160009054906101000a900460ff1660028111156107be576107bd610e29565b5b036107cc57600190506107d1565b600090505b919050565b600073ffffffffffffffffffffffffffffffffffffffff163373ffffffffffffffffffffffffffffffffffffffff160361080f57600080fd5b6004600086815260200190815260200160002060020160009054906101000a900473ffffffffffffffffffffffffffffffffffffffff1673ffffffffffffffffffffffffffffffffffffffff163373ffffffffffffffffffffffffffffffffffffffff16146108b3576040517f08c379a00000000000000000000000000000000000000000000000000000000081526004016108aa90611761565b60405180910390fd5b6040518060e001604052808681526020018573ffffffffffffffffffffffffffffffffffffffff1681526020018481526020018381526020018281526020014281526020016000600281111561090c5761090b610e29565b5b815250600360008781526020019081526020016000206000820151816000015560208201518160010160006101000a81548173ffffffffffffffffffffffffffffffffffffffff021916908373ffffffffffffffffffffffffffffffffffffffff16021790555060408201518160020190816109889190611643565b50606082015181600301908161099e9190611643565b5060808201518160040190816109b49190611643565b5060a0820151816005015560c08201518160060160006101000a81548160ff021916908360028111156109ea576109e9610e29565b5b021790555090505060026000815480929190610a059061144f565b91905055505050505050565b6004602052806000526040600020600091509050806000015490806001018054610a3a906112f1565b80601f0160208091040260200160405190810160405280929190818152602001828054610a66906112f1565b8015610ab35780601f10610a8857610100808354040283529160200191610ab3565b820191906000526020600020905b815481529060010190602001808311610a9657829003601f168201915b5050505050908060020160009054906101000a900473ffffffffffffffffffffffffffffffffffffffff1690806003015490806004018054610af4906112f1565b80601f0160208091040260200160405190810160405280929190818152602001828054610b20906112f1565b8015610b6d5780601f10610b4257610100808354040283529160200191610b6d565b820191906000526020600020905b815481529060010190602001808311610b5057829003601f168201915b505050505090806005018054610b82906112f1565b80601f0160208091040260200160405190810160405280929190818152602001828054610bae906112f1565b8015610bfb5780601f10610bd057610100808354040283529160200191610bfb565b820191906000526020600020905b815481529060010190602001808311610bde57829003601f168201915b5050505050908060060160009054906101000a900460ff16905087565b60016003600083815260200190815260200160002060060160006101000a81548160ff02191690836002811115610c5257610c51610e29565b5b021790555050565b60026003600083815260200190815260200160002060060160006101000a81548160ff02191690836002811115610c9457610c93610e29565b5b021790555050565b6000604051905090565b600080fd5b600080fd5b6000819050919050565b610cc381610cb0565b8114610cce57600080fd5b50565b600081359050610ce081610cba565b92915050565b600060208284031215610cfc57610cfb610ca6565b5b6000610d0a84828501610cd1565b91505092915050565b60008115159050919050565b610d2881610d13565b82525050565b6000602082019050610d436000830184610d1f565b92915050565b610d5281610cb0565b82525050565b600073ffffffffffffffffffffffffffffffffffffffff82169050919050565b6000610d8382610d58565b9050919050565b610d9381610d78565b82525050565b600081519050919050565b600082825260208201905092915050565b60005b83811015610dd3578082015181840152602081019050610db8565b60008484015250505050565b6000601f19601f8301169050919050565b6000610dfb82610d99565b610e058185610da4565b9350610e15818560208601610db5565b610e1e81610ddf565b840191505092915050565b7f4e487b7100000000000000000000000000000000000000000000000000000000600052602160045260246000fd5b60038110610e6957610e68610e29565b5b50565b6000819050610e7a82610e58565b919050565b6000610e8a82610e6c565b9050919050565b610e9a81610e7f565b82525050565b600060e082019050610eb5600083018a610d49565b610ec26020830189610d8a565b8181036040830152610ed48188610df0565b90508181036060830152610ee88187610df0565b90508181036080830152610efc8186610df0565b9050610f0b60a0830185610d49565b610f1860c0830184610e91565b98975050505050505050565b610f2d81610d78565b8114610f3857600080fd5b50565b600081359050610f4a81610f24565b92915050565b600080fd5b600080fd5b7f4e487b7100000000000000000000000000000000000000000000000000000000600052604160045260246000fd5b610f9282610ddf565b810181811067ffffffffffffffff82111715610fb157610fb0610f5a565b5b80604052505050565b6000610fc4610c9c565b9050610fd08282610f89565b919050565b600067ffffffffffffffff821115610ff057610fef610f5a565b5b610ff982610ddf565b9050602081019050919050565b82818337600083830152505050565b600061102861102384610fd5565b610fba565b90508281526020810184848401111561104457611043610f55565b5b61104f848285611006565b509392505050565b600082601f83011261106c5761106b610f50565b5b813561107c848260208601611015565b91505092915050565b600080600080600060a086880312156110a1576110a0610ca6565b5b60006110af88828901610f3b565b955050602086013567ffffffffffffffff8111156110d0576110cf610cab565b5b6110dc88828901611057565b94505060406110ed88828901610cd1565b935050606086013567ffffffffffffffff81111561110e5761110d610cab565b5b61111a88828901611057565b925050608086013567ffffffffffffffff81111561113b5761113a610cab565b5b61114788828901611057565b9150509295509295909350565b60006020820190506111696000830184610d49565b92915050565b600080600080600060a0868803121561118b5761118a610ca6565b5b600061119988828901610cd1565b95505060206111aa88828901610f3b565b945050604086013567ffffffffffffffff8111156111cb576111ca610cab565b5b6111d788828901611057565b935050606086013567ffffffffffffffff8111156111f8576111f7610cab565b5b61120488828901611057565b925050608086013567ffffffffffffffff81111561122557611224610cab565b5b61123188828901611057565b9150509295509295909350565b600060e082019050611253600083018a610d49565b81810360208301526112658189610df0565b90506112746040830188610d8a565b6112816060830187610d49565b81810360808301526112938186610df0565b905081810360a08301526112a78185610df0565b90506112b660c0830184610d1f565b98975050505050505050565b7f4e487b7100000000000000000000000000000000000000000000000000000000600052602260045260246000fd5b6000600282049050600182168061130957607f821691505b60208210810361131c5761131b6112c2565b5b50919050565b7f54686520436f6e74726163742073686f756c642062652063616c6c656420627960008201527f20746865204170706c6963616e74206164647265737321000000000000000000602082015250565b600061137e603783610da4565b915061138982611322565b604082019050919050565b600060208201905081810360008301526113ad81611371565b9050919050565b7f546865206164647265737365732063616e277420626520656d70747921000000600082015250565b60006113ea601d83610da4565b91506113f5826113b4565b602082019050919050565b60006020820190508181036000830152611419816113dd565b9050919050565b7f4e487b7100000000000000000000000000000000000000000000000000000000600052601160045260246000fd5b600061145a82610cb0565b91507fffffffffffffffffffffffffffffffffffffffffffffffffffffffffffffffff820361148c5761148b611420565b5b600182019050919050565b60008190508160005260206000209050919050565b60006020601f8301049050919050565b600082821b905092915050565b6000600883026114f97fffffffffffffffffffffffffffffffffffffffffffffffffffffffffffffffff826114bc565b61150386836114bc565b95508019841693508086168417925050509392505050565b6000819050919050565b600061154061153b61153684610cb0565b61151b565b610cb0565b9050919050565b6000819050919050565b61155a83611525565b61156e61156682611547565b8484546114c9565b825550505050565b600090565b611583611576565b61158e818484611551565b505050565b5b818110156115b2576115a760008261157b565b600181019050611594565b5050565b601f8211156115f7576115c881611497565b6115d1846114ac565b810160208510156115e0578190505b6115f46115ec856114ac565b830182611593565b50505b505050565b600082821c905092915050565b600061161a600019846008026115fc565b1980831691505092915050565b60006116338383611609565b9150826002028217905092915050565b61164c82610d99565b67ffffffffffffffff81111561166557611664610f5a565b5b61166f82546112f1565b61167a8282856115b6565b600060209050601f8311600181146116ad576000841561169b578287015190505b6116a58582611627565b86555061170d565b601f1984166116bb86611497565b60005b828110156116e3578489015182556001820191506020850194506020810190506116be565b8683101561170057848901516116fc601f891682611609565b8355505b6001600288020188555050505b505050505050565b7f43616e206265207369676e6564206f6e6c79206279206c6963656e736f720000600082015250565b600061174b601e83610da4565b915061175682611715565b602082019050919050565b6000602082019050818103600083015261177a8161173e565b905091905056fea2646970667358221220fe26f3b4b10a518ce9b7a1c3c5c9af36a70cba1b67529221590b6d924365f33f64736f6c63430008110033",
  "linkReferences": {},
  "deployedLinkReferences": {}
}