{
  "_format": "hh-sol-artifact-1",
  "contractName": "NewPatent",
  "sourceName": "contracts/NewPatent.sol",
  "abi": [
    {
      "anonymous": false,
      "inputs": [
        {
          "indexed": false,
          "internalType": "uint256",
          "name": "id",
          "type": "uint256"
        }
      ],
      "name": "token",
      "type": "event"
    },
    {
      "inputs": [
        {
          "internalType": "uint256",
          "name": "",
          "type": "uint256"
        }
      ],
      "name": "applicant_info",
      "outputs": [
        {
          "internalType": "uint256",
          "name": "application_id",
          "type": "uint256"
        },
        {
          "internalType": "string",
          "name": "applicantType",
          "type": "string"
        },
        {
          "internalType": "address payable",
          "name": "applicant",
          "type": "address"
        },
        {
          "internalType": "uint256",
          "name": "_aadhar_no",
          "type": "uint256"
        },
        {
          "internalType": "string",
          "name": "_Fname",
          "type": "string"
        },
        {
          "internalType": "string",
          "name": "_Faddr",
          "type": "string"
        },
        {
          "internalType": "bool",
          "name": "signed",
          "type": "bool"
        }
      ],
      "stateMutability": "view",
      "type": "function"
    },
    {
      "inputs": [
        {
          "internalType": "uint256",
          "name": "_id",
          "type": "uint256"
        }
      ],
      "name": "approve",
      "outputs": [],
      "stateMutability": "nonpayable",
      "type": "function"
    },
    {
      "inputs": [
        {
          "internalType": "uint256",
          "name": "_index",
          "type": "uint256"
        }
      ],
      "name": "getApproved",
      "outputs": [
        {
          "internalType": "bool",
          "name": "",
          "type": "bool"
        }
      ],
      "stateMutability": "view",
      "type": "function"
    },
    {
      "inputs": [
        {
          "internalType": "uint256",
          "name": "_index",
          "type": "uint256"
        }
      ],
      "name": "getSigned",
      "outputs": [
        {
          "internalType": "bool",
          "name": "",
          "type": "bool"
        }
      ],
      "stateMutability": "view",
      "type": "function"
    },
    {
      "inputs": [
        {
          "internalType": "uint256",
          "name": "_id",
          "type": "uint256"
        },
        {
          "internalType": "address payable",
          "name": "_applicant",
          "type": "address"
        },
        {
          "internalType": "string",
          "name": "_inventionTitle",
          "type": "string"
        },
        {
          "internalType": "string",
          "name": "_inventionType",
          "type": "string"
        },
        {
          "internalType": "string",
          "name": "_inventionDescription",
          "type": "string"
        },
        {
          "internalType": "uint256",
          "name": "_amount",
          "type": "uint256"
        }
      ],
      "name": "patentData",
      "outputs": [],
      "stateMutability": "nonpayable",
      "type": "function"
    },
    {
      "inputs": [
        {
          "internalType": "uint256",
          "name": "",
          "type": "uint256"
        }
      ],
      "name": "patent_info",
      "outputs": [
        {
          "internalType": "uint256",
          "name": "application_id",
          "type": "uint256"
        },
        {
          "internalType": "address payable",
          "name": "applicant",
          "type": "address"
        },
        {
          "internalType": "string",
          "name": "inventionTitle",
          "type": "string"
        },
        {
          "internalType": "string",
          "name": "inventionType",
          "type": "string"
        },
        {
          "internalType": "string",
          "name": "inventionDescription",
          "type": "string"
        },
        {
          "internalType": "uint256",
          "name": "amount",
          "type": "uint256"
        },
        {
          "internalType": "uint256",
          "name": "createdTimestamp",
          "type": "uint256"
        },
        {
          "internalType": "enum NewPatent.State",
          "name": "se",
          "type": "uint8"
        }
      ],
      "stateMutability": "view",
      "type": "function"
    },
    {
      "inputs": [
        {
          "internalType": "address payable",
          "name": "_applicant",
          "type": "address"
        },
        {
          "internalType": "string",
          "name": "_applicantType",
          "type": "string"
        },
        {
          "internalType": "uint256",
          "name": "_aadharNo",
          "type": "uint256"
        },
        {
          "internalType": "string",
          "name": "_fName",
          "type": "string"
        },
        {
          "internalType": "string",
          "name": "_fAddr",
          "type": "string"
        }
      ],
      "name": "setAgreement",
      "outputs": [],
      "stateMutability": "nonpayable",
      "type": "function"
    }
  ],
  "bytecode": "0x6080604052600060015534801561001557600080fd5b506116a3806100256000396000f3fe608060405234801561001057600080fd5b506004361061007d5760003560e01c80634b2117bc1161005b5780634b2117bc146101195780636f9587e914610135578063a3ba0a7a14610151578063b759f954146101875761007d565b8063081812fc1461008257806326d11a21146100b257806333704b59146100e2575b600080fd5b61009c60048036038101906100979190610bb1565b6101a3565b6040516100a99190610bf9565b60405180910390f35b6100cc60048036038101906100c79190610bb1565b610207565b6040516100d99190610bf9565b60405180910390f35b6100fc60048036038101906100f79190610bb1565b61024b565b604051610110989796959493929190610d6b565b60405180910390f35b610133600480360381019061012e9190610f5f565b610458565b005b61014f600480360381019061014a919061102e565b6106e9565b005b61016b60048036038101906101669190610bb1565b61091e565b60405161017e979695949392919061110f565b60405180910390f35b6101a1600480360381019061019c9190610bb1565b610b25565b005b6000600160028111156101b9576101b8610cf4565b5b6002600084815260200190815260200160002060070160009054906101000a900460ff1660028111156101ef576101ee610cf4565b5b036101fd5760019050610202565b600090505b919050565b6000600115156003600084815260200190815260200160002060060160009054906101000a900460ff161515036102415760019050610246565b600090505b919050565b60026020528060005260406000206000915090508060000154908060010160009054906101000a900473ffffffffffffffffffffffffffffffffffffffff169080600201805461029a906111c2565b80601f01602080910402602001604051908101604052809291908181526020018280546102c6906111c2565b80156103135780601f106102e857610100808354040283529160200191610313565b820191906000526020600020905b8154815290600101906020018083116102f657829003601f168201915b505050505090806003018054610328906111c2565b80601f0160208091040260200160405190810160405280929190818152602001828054610354906111c2565b80156103a15780601f10610376576101008083540402835291602001916103a1565b820191906000526020600020905b81548152906001019060200180831161038457829003601f168201915b5050505050908060040180546103b6906111c2565b80601f01602080910402602001604051908101604052809291908181526020018280546103e2906111c2565b801561042f5780601f106104045761010080835404028352916020019161042f565b820191906000526020600020905b81548152906001019060200180831161041257829003601f168201915b5050505050908060050154908060060154908060070160009054906101000a900460ff16905088565b600073ffffffffffffffffffffffffffffffffffffffff163373ffffffffffffffffffffffffffffffffffffffff160361049157600080fd5b8473ffffffffffffffffffffffffffffffffffffffff163373ffffffffffffffffffffffffffffffffffffffff16146104ff576040517f08c379a00000000000000000000000000000000000000000000000000000000081526004016104f690611265565b60405180910390fd5b600073ffffffffffffffffffffffffffffffffffffffff168573ffffffffffffffffffffffffffffffffffffffff160361056e576040517f08c379a0000000000000000000000000000000000000000000000000000000008152600401610565906112d1565b60405180910390fd5b6001600081548092919061058190611320565b91905055506040518060e0016040528060015481526020018581526020018673ffffffffffffffffffffffffffffffffffffffff168152602001848152602001838152602001828152602001600115158152506003600060015481526020019081526020016000206000820151816000015560208201518160010190816106089190611514565b5060408201518160020160006101000a81548173ffffffffffffffffffffffffffffffffffffffff021916908373ffffffffffffffffffffffffffffffffffffffff16021790555060608201518160030155608082015181600401908161066f9190611514565b5060a08201518160050190816106859190611514565b5060c08201518160060160006101000a81548160ff0219169083151502179055509050507f044215c67d3b8d56e3fe696cb171f256405bb8bacb42fb78bfb2aa7df629eb366001546040516106da91906115e6565b60405180910390a15050505050565b600073ffffffffffffffffffffffffffffffffffffffff163373ffffffffffffffffffffffffffffffffffffffff160361072257600080fd5b6003600087815260200190815260200160002060020160009054906101000a900473ffffffffffffffffffffffffffffffffffffffff1673ffffffffffffffffffffffffffffffffffffffff163373ffffffffffffffffffffffffffffffffffffffff16146107c6576040517f08c379a00000000000000000000000000000000000000000000000000000000081526004016107bd9061164d565b60405180910390fd5b6040518061010001604052808781526020018673ffffffffffffffffffffffffffffffffffffffff1681526020018581526020018481526020018381526020018281526020014281526020016000600281111561082657610825610cf4565b5b815250600260008881526020019081526020016000206000820151816000015560208201518160010160006101000a81548173ffffffffffffffffffffffffffffffffffffffff021916908373ffffffffffffffffffffffffffffffffffffffff16021790555060408201518160020190816108a29190611514565b5060608201518160030190816108b89190611514565b5060808201518160040190816108ce9190611514565b5060a0820151816005015560c0820151816006015560e08201518160070160006101000a81548160ff0219169083600281111561090e5761090d610cf4565b5b0217905550905050505050505050565b6003602052806000526040600020600091509050806000015490806001018054610947906111c2565b80601f0160208091040260200160405190810160405280929190818152602001828054610973906111c2565b80156109c05780601f10610995576101008083540402835291602001916109c0565b820191906000526020600020905b8154815290600101906020018083116109a357829003601f168201915b5050505050908060020160009054906101000a900473ffffffffffffffffffffffffffffffffffffffff1690806003015490806004018054610a01906111c2565b80601f0160208091040260200160405190810160405280929190818152602001828054610a2d906111c2565b8015610a7a5780601f10610a4f57610100808354040283529160200191610a7a565b820191906000526020600020905b815481529060010190602001808311610a5d57829003601f168201915b505050505090806005018054610a8f906111c2565b80601f0160208091040260200160405190810160405280929190818152602001828054610abb906111c2565b8015610b085780601f10610add57610100808354040283529160200191610b08565b820191906000526020600020905b815481529060010190602001808311610aeb57829003601f168201915b5050505050908060060160009054906101000a900460ff16905087565b60016002600083815260200190815260200160002060070160006101000a81548160ff02191690836002811115610b5f57610b5e610cf4565b5b021790555050565b6000604051905090565b600080fd5b600080fd5b6000819050919050565b610b8e81610b7b565b8114610b9957600080fd5b50565b600081359050610bab81610b85565b92915050565b600060208284031215610bc757610bc6610b71565b5b6000610bd584828501610b9c565b91505092915050565b60008115159050919050565b610bf381610bde565b82525050565b6000602082019050610c0e6000830184610bea565b92915050565b610c1d81610b7b565b82525050565b600073ffffffffffffffffffffffffffffffffffffffff82169050919050565b6000610c4e82610c23565b9050919050565b610c5e81610c43565b82525050565b600081519050919050565b600082825260208201905092915050565b60005b83811015610c9e578082015181840152602081019050610c83565b60008484015250505050565b6000601f19601f8301169050919050565b6000610cc682610c64565b610cd08185610c6f565b9350610ce0818560208601610c80565b610ce981610caa565b840191505092915050565b7f4e487b7100000000000000000000000000000000000000000000000000000000600052602160045260246000fd5b60038110610d3457610d33610cf4565b5b50565b6000819050610d4582610d23565b919050565b6000610d5582610d37565b9050919050565b610d6581610d4a565b82525050565b600061010082019050610d81600083018b610c14565b610d8e602083018a610c55565b8181036040830152610da08189610cbb565b90508181036060830152610db48188610cbb565b90508181036080830152610dc88187610cbb565b9050610dd760a0830186610c14565b610de460c0830185610c14565b610df160e0830184610d5c565b9998505050505050505050565b610e0781610c43565b8114610e1257600080fd5b50565b600081359050610e2481610dfe565b92915050565b600080fd5b600080fd5b7f4e487b7100000000000000000000000000000000000000000000000000000000600052604160045260246000fd5b610e6c82610caa565b810181811067ffffffffffffffff82111715610e8b57610e8a610e34565b5b80604052505050565b6000610e9e610b67565b9050610eaa8282610e63565b919050565b600067ffffffffffffffff821115610eca57610ec9610e34565b5b610ed382610caa565b9050602081019050919050565b82818337600083830152505050565b6000610f02610efd84610eaf565b610e94565b905082815260208101848484011115610f1e57610f1d610e2f565b5b610f29848285610ee0565b509392505050565b600082601f830112610f4657610f45610e2a565b5b8135610f56848260208601610eef565b91505092915050565b600080600080600060a08688031215610f7b57610f7a610b71565b5b6000610f8988828901610e15565b955050602086013567ffffffffffffffff811115610faa57610fa9610b76565b5b610fb688828901610f31565b9450506040610fc788828901610b9c565b935050606086013567ffffffffffffffff811115610fe857610fe7610b76565b5b610ff488828901610f31565b925050608086013567ffffffffffffffff81111561101557611014610b76565b5b61102188828901610f31565b9150509295509295909350565b60008060008060008060c0878903121561104b5761104a610b71565b5b600061105989828a01610b9c565b965050602061106a89828a01610e15565b955050604087013567ffffffffffffffff81111561108b5761108a610b76565b5b61109789828a01610f31565b945050606087013567ffffffffffffffff8111156110b8576110b7610b76565b5b6110c489828a01610f31565b935050608087013567ffffffffffffffff8111156110e5576110e4610b76565b5b6110f189828a01610f31565b92505060a061110289828a01610b9c565b9150509295509295509295565b600060e082019050611124600083018a610c14565b81810360208301526111368189610cbb565b90506111456040830188610c55565b6111526060830187610c14565b81810360808301526111648186610cbb565b905081810360a08301526111788185610cbb565b905061118760c0830184610bea565b98975050505050505050565b7f4e487b7100000000000000000000000000000000000000000000000000000000600052602260045260246000fd5b600060028204905060018216806111da57607f821691505b6020821081036111ed576111ec611193565b5b50919050565b7f54686520436f6e74726163742073686f756c642062652063616c6c656420627960008201527f20746865204170706c6963616e74206164647265737321000000000000000000602082015250565b600061124f603783610c6f565b915061125a826111f3565b604082019050919050565b6000602082019050818103600083015261127e81611242565b9050919050565b7f546865206164647265737365732063616e277420626520656d70747921000000600082015250565b60006112bb601d83610c6f565b91506112c682611285565b602082019050919050565b600060208201905081810360008301526112ea816112ae565b9050919050565b7f4e487b7100000000000000000000000000000000000000000000000000000000600052601160045260246000fd5b600061132b82610b7b565b91507fffffffffffffffffffffffffffffffffffffffffffffffffffffffffffffffff820361135d5761135c6112f1565b5b600182019050919050565b60008190508160005260206000209050919050565b60006020601f8301049050919050565b600082821b905092915050565b6000600883026113ca7fffffffffffffffffffffffffffffffffffffffffffffffffffffffffffffffff8261138d565b6113d4868361138d565b95508019841693508086168417925050509392505050565b6000819050919050565b600061141161140c61140784610b7b565b6113ec565b610b7b565b9050919050565b6000819050919050565b61142b836113f6565b61143f61143782611418565b84845461139a565b825550505050565b600090565b611454611447565b61145f818484611422565b505050565b5b818110156114835761147860008261144c565b600181019050611465565b5050565b601f8211156114c85761149981611368565b6114a28461137d565b810160208510156114b1578190505b6114c56114bd8561137d565b830182611464565b50505b505050565b600082821c905092915050565b60006114eb600019846008026114cd565b1980831691505092915050565b600061150483836114da565b9150826002028217905092915050565b61151d82610c64565b67ffffffffffffffff81111561153657611535610e34565b5b61154082546111c2565b61154b828285611487565b600060209050601f83116001811461157e576000841561156c578287015190505b61157685826114f8565b8655506115de565b601f19841661158c86611368565b60005b828110156115b45784890151825560018201915060208501945060208101905061158f565b868310156115d157848901516115cd601f8916826114da565b8355505b6001600288020188555050505b505050505050565b60006020820190506115fb6000830184610c14565b92915050565b7f43616e206265207369676e6564206f6e6c79206279206c6963656e736f720000600082015250565b6000611637601e83610c6f565b915061164282611601565b602082019050919050565b600060208201905081810360008301526116668161162a565b905091905056fea26469706673582212208d96158b910550a4f34a250a857ed327f9d84db9274b35a9a0b2dc30e699fe5364736f6c63430008110033",
  "linkReferences": {},
  "deployedLinkReferences": {}
}