{
  "_format": "hh-sol-artifact-1",
  "contractName": "PatentOwnershipTransfer",
  "sourceName": "contracts/PatentOwnershipTransfer.sol",
  "abi": [
    {
      "anonymous": false,
      "inputs": [
        {
          "indexed": false,
          "internalType": "uint256",
          "name": "id",
          "type": "uint256"
        }
      ],
      "name": "token",
      "type": "event"
    },
    {
      "inputs": [
        {
          "internalType": "uint256",
          "name": "",
          "type": "uint256"
        }
      ],
      "name": "agreement_info",
      "outputs": [
        {
          "internalType": "uint256",
          "name": "agreement_id",
          "type": "uint256"
        },
        {
          "internalType": "address payable",
          "name": "licensor",
          "type": "address"
        },
        {
          "internalType": "address payable",
          "name": "licensee",
          "type": "address"
        },
        {
          "internalType": "string",
          "name": "patent_number",
          "type": "string"
        },
        {
          "internalType": "uint256",
          "name": "amount",
          "type": "uint256"
        },
        {
          "internalType": "string",
          "name": "state",
          "type": "string"
        },
        {
          "internalType": "uint256",
          "name": "createdTimestamp",
          "type": "uint256"
        },
        {
          "internalType": "enum PatentOwnershipTransfer.State",
          "name": "se",
          "type": "uint8"
        }
      ],
      "stateMutability": "view",
      "type": "function"
    },
    {
      "inputs": [
        {
          "internalType": "uint256",
          "name": "_index",
          "type": "uint256"
        }
      ],
      "name": "getCompleted",
      "outputs": [
        {
          "internalType": "bool",
          "name": "",
          "type": "bool"
        }
      ],
      "stateMutability": "view",
      "type": "function"
    },
    {
      "inputs": [
        {
          "internalType": "uint256",
          "name": "_index",
          "type": "uint256"
        }
      ],
      "name": "getSigned",
      "outputs": [
        {
          "internalType": "bool",
          "name": "",
          "type": "bool"
        }
      ],
      "stateMutability": "view",
      "type": "function"
    },
    {
      "inputs": [
        {
          "internalType": "uint256",
          "name": "",
          "type": "uint256"
        }
      ],
      "name": "licensee_info",
      "outputs": [
        {
          "internalType": "uint256",
          "name": "agreement_id",
          "type": "uint256"
        },
        {
          "internalType": "address payable",
          "name": "licensee",
          "type": "address"
        },
        {
          "internalType": "uint256",
          "name": "_aadhar_no",
          "type": "uint256"
        },
        {
          "internalType": "string",
          "name": "_name",
          "type": "string"
        },
        {
          "internalType": "string",
          "name": "_addr",
          "type": "string"
        },
        {
          "internalType": "bool",
          "name": "signed",
          "type": "bool"
        }
      ],
      "stateMutability": "view",
      "type": "function"
    },
    {
      "inputs": [
        {
          "internalType": "uint256",
          "name": "",
          "type": "uint256"
        }
      ],
      "name": "licensor_info",
      "outputs": [
        {
          "internalType": "uint256",
          "name": "agreement_id",
          "type": "uint256"
        },
        {
          "internalType": "address payable",
          "name": "licensor",
          "type": "address"
        },
        {
          "internalType": "uint256",
          "name": "_aadhar_no",
          "type": "uint256"
        },
        {
          "internalType": "string",
          "name": "_name",
          "type": "string"
        },
        {
          "internalType": "string",
          "name": "_addr",
          "type": "string"
        },
        {
          "internalType": "bool",
          "name": "signed",
          "type": "bool"
        }
      ],
      "stateMutability": "view",
      "type": "function"
    },
    {
      "inputs": [
        {
          "internalType": "address payable",
          "name": "_licensor",
          "type": "address"
        },
        {
          "internalType": "address payable",
          "name": "_licensee",
          "type": "address"
        },
        {
          "internalType": "string",
          "name": "_patent_number",
          "type": "string"
        },
        {
          "internalType": "uint256",
          "name": "_amount",
          "type": "uint256"
        },
        {
          "internalType": "string",
          "name": "_state",
          "type": "string"
        }
      ],
      "name": "setAgreement",
      "outputs": [],
      "stateMutability": "nonpayable",
      "type": "function"
    },
    {
      "inputs": [
        {
          "internalType": "uint256",
          "name": "_index",
          "type": "uint256"
        },
        {
          "internalType": "uint256",
          "name": "_aadhar_no",
          "type": "uint256"
        },
        {
          "internalType": "string",
          "name": "_name",
          "type": "string"
        },
        {
          "internalType": "string",
          "name": "_addr",
          "type": "string"
        }
      ],
      "name": "signLicensee",
      "outputs": [],
      "stateMutability": "payable",
      "type": "function"
    },
    {
      "inputs": [
        {
          "internalType": "uint256",
          "name": "_index",
          "type": "uint256"
        },
        {
          "internalType": "uint256",
          "name": "_aadhar_no",
          "type": "uint256"
        },
        {
          "internalType": "string",
          "name": "_name",
          "type": "string"
        },
        {
          "internalType": "string",
          "name": "_addr",
          "type": "string"
        }
      ],
      "name": "signLicensor",
      "outputs": [],
      "stateMutability": "nonpayable",
      "type": "function"
    }
  ],
  "bytecode": "0x6080604052600060025534801561001557600080fd5b50611ec9806100256000396000f3fe60806040526004361061007b5760003560e01c8063918caa5f1161004e578063918caa5f1461013f578063a96e224714610181578063b3850613146101c3578063e540400f146101ec5761007b565b80631bfc269b1461008057806326d11a21146100bd578063504ba8f0146100fa5780638321d1df14610116575b600080fd5b34801561008c57600080fd5b506100a760048036038101906100a2919061127b565b610230565b6040516100b491906112c3565b60405180910390f35b3480156100c957600080fd5b506100e460048036038101906100df919061127b565b610293565b6040516100f191906112c3565b60405180910390f35b610114600480360381019061010f9190611424565b61030b565b005b34801561012257600080fd5b5061013d60048036038101906101389190611424565b610725565b005b34801561014b57600080fd5b506101666004803603810190610161919061127b565b6109ea565b60405161017896959493929190611592565b60405180910390f35b34801561018d57600080fd5b506101a860048036038101906101a3919061127b565b610b63565b6040516101ba96959493929190611592565b60405180910390f35b3480156101cf57600080fd5b506101ea60048036038101906101e5919061162d565b610cdc565b005b3480156101f857600080fd5b50610213600480360381019061020e919061127b565b61108c565b604051610227989796959493929190611757565b60405180910390f35b6000600180811115610245576102446116e0565b5b6003600084815260200190815260200160002060070160009054906101000a900460ff16600181111561027b5761027a6116e0565b5b03610289576001905061028e565b600090505b919050565b6000600115156004600084815260200190815260200160002060050160009054906101000a900460ff1615151480156102f35750600115156005600084815260200190815260200160002060050160009054906101000a900460ff161515145b156103015760019050610306565b600090505b919050565b600073ffffffffffffffffffffffffffffffffffffffff163373ffffffffffffffffffffffffffffffffffffffff160361034457600080fd5b6003600085815260200190815260200160002060020160009054906101000a900473ffffffffffffffffffffffffffffffffffffffff1673ffffffffffffffffffffffffffffffffffffffff163373ffffffffffffffffffffffffffffffffffffffff16146103e8576040517f08c379a00000000000000000000000000000000000000000000000000000000081526004016103df9061182f565b60405180910390fd5b600115156004600086815260200190815260200160002060050160009054906101000a900460ff16151514610452576040517f08c379a00000000000000000000000000000000000000000000000000000000081526004016104499061189b565b60405180910390fd5b600360008581526020019081526020016000206004015434146104aa576040517f08c379a00000000000000000000000000000000000000000000000000000000081526004016104a190611907565b60405180910390fd5b60006003600086815260200190815260200160002060020160009054906101000a900473ffffffffffffffffffffffffffffffffffffffff1690506040518060c001604052808681526020018273ffffffffffffffffffffffffffffffffffffffff16815260200185815260200184815260200183815260200160011515815250600560008781526020019081526020016000206000820151816000015560208201518160010160006101000a81548173ffffffffffffffffffffffffffffffffffffffff021916908373ffffffffffffffffffffffffffffffffffffffff1602179055506040820151816002015560608201518160030190816105ae9190611b33565b5060808201518160040190816105c49190611b33565b5060a08201518160050160006101000a81548160ff021916908315150217905550905050600115156004600087815260200190815260200160002060050160009054906101000a900460ff1615151480156106465750600115156005600087815260200190815260200160002060050160009054906101000a900460ff161515145b1561071e5760016003600087815260200190815260200160002060070160006101000a81548160ff02191690836001811115610685576106846116e0565b5b02179055506003600086815260200190815260200160002060010160009054906101000a900473ffffffffffffffffffffffffffffffffffffffff1673ffffffffffffffffffffffffffffffffffffffff166108fc60036000888152602001908152602001600020600401549081150290604051600060405180830381858888f1935050505015801561071c573d6000803e3d6000fd5b505b5050505050565b600073ffffffffffffffffffffffffffffffffffffffff163373ffffffffffffffffffffffffffffffffffffffff160361075e57600080fd5b6003600085815260200190815260200160002060010160009054906101000a900473ffffffffffffffffffffffffffffffffffffffff1673ffffffffffffffffffffffffffffffffffffffff163373ffffffffffffffffffffffffffffffffffffffff1614610802576040517f08c379a00000000000000000000000000000000000000000000000000000000081526004016107f990611c51565b60405180910390fd5b60006003600086815260200190815260200160002060010160009054906101000a900473ffffffffffffffffffffffffffffffffffffffff1690506040518060c001604052808681526020018273ffffffffffffffffffffffffffffffffffffffff16815260200185815260200184815260200183815260200160011515815250600460008781526020019081526020016000206000820151816000015560208201518160010160006101000a81548173ffffffffffffffffffffffffffffffffffffffff021916908373ffffffffffffffffffffffffffffffffffffffff1602179055506040820151816002015560608201518160030190816109069190611b33565b50608082015181600401908161091c9190611b33565b5060a08201518160050160006101000a81548160ff021916908315150217905550905050600115156004600087815260200190815260200160002060050160009054906101000a900460ff16151514801561099e5750600115156005600087815260200190815260200160002060050160009054906101000a900460ff161515145b156109e35760016003600087815260200190815260200160002060070160006101000a81548160ff021916908360018111156109dd576109dc6116e0565b5b02179055505b5050505050565b60056020528060005260406000206000915090508060000154908060010160009054906101000a900473ffffffffffffffffffffffffffffffffffffffff1690806002015490806003018054610a3f90611956565b80601f0160208091040260200160405190810160405280929190818152602001828054610a6b90611956565b8015610ab85780601f10610a8d57610100808354040283529160200191610ab8565b820191906000526020600020905b815481529060010190602001808311610a9b57829003601f168201915b505050505090806004018054610acd90611956565b80601f0160208091040260200160405190810160405280929190818152602001828054610af990611956565b8015610b465780601f10610b1b57610100808354040283529160200191610b46565b820191906000526020600020905b815481529060010190602001808311610b2957829003601f168201915b5050505050908060050160009054906101000a900460ff16905086565b60046020528060005260406000206000915090508060000154908060010160009054906101000a900473ffffffffffffffffffffffffffffffffffffffff1690806002015490806003018054610bb890611956565b80601f0160208091040260200160405190810160405280929190818152602001828054610be490611956565b8015610c315780601f10610c0657610100808354040283529160200191610c31565b820191906000526020600020905b815481529060010190602001808311610c1457829003601f168201915b505050505090806004018054610c4690611956565b80601f0160208091040260200160405190810160405280929190818152602001828054610c7290611956565b8015610cbf5780601f10610c9457610100808354040283529160200191610cbf565b820191906000526020600020905b815481529060010190602001808311610ca257829003601f168201915b5050505050908060050160009054906101000a900460ff16905086565b600073ffffffffffffffffffffffffffffffffffffffff163373ffffffffffffffffffffffffffffffffffffffff1603610d1557600080fd5b8473ffffffffffffffffffffffffffffffffffffffff163373ffffffffffffffffffffffffffffffffffffffff1614610d83576040517f08c379a0000000000000000000000000000000000000000000000000000000008152600401610d7a90611ce3565b60405180910390fd5b600073ffffffffffffffffffffffffffffffffffffffff168573ffffffffffffffffffffffffffffffffffffffff16141580610dec5750600073ffffffffffffffffffffffffffffffffffffffff168473ffffffffffffffffffffffffffffffffffffffff1614155b610e2b576040517f08c379a0000000000000000000000000000000000000000000000000000000008152600401610e2290611d4f565b60405180910390fd5b8373ffffffffffffffffffffffffffffffffffffffff168573ffffffffffffffffffffffffffffffffffffffff1603610e99576040517f08c379a0000000000000000000000000000000000000000000000000000000008152600401610e9090611de1565b60405180910390fd5b60026000815480929190610eac90611e30565b919050555060405180610100016040528060025481526020018673ffffffffffffffffffffffffffffffffffffffff1681526020018573ffffffffffffffffffffffffffffffffffffffff16815260200184815260200183815260200182815260200142815260200160006001811115610f2957610f286116e0565b5b8152506003600060025481526020019081526020016000206000820151816000015560208201518160010160006101000a81548173ffffffffffffffffffffffffffffffffffffffff021916908373ffffffffffffffffffffffffffffffffffffffff16021790555060408201518160020160006101000a81548173ffffffffffffffffffffffffffffffffffffffff021916908373ffffffffffffffffffffffffffffffffffffffff1602179055506060820151816003019081610fee9190611b33565b506080820151816004015560a082015181600501908161100e9190611b33565b5060c0820151816006015560e08201518160070160006101000a81548160ff02191690836001811115611044576110436116e0565b5b02179055509050507f044215c67d3b8d56e3fe696cb171f256405bb8bacb42fb78bfb2aa7df629eb3660025460405161107d9190611e78565b60405180910390a15050505050565b60036020528060005260406000206000915090508060000154908060010160009054906101000a900473ffffffffffffffffffffffffffffffffffffffff16908060020160009054906101000a900473ffffffffffffffffffffffffffffffffffffffff169080600301805461110190611956565b80601f016020809104026020016040519081016040528092919081815260200182805461112d90611956565b801561117a5780601f1061114f5761010080835404028352916020019161117a565b820191906000526020600020905b81548152906001019060200180831161115d57829003601f168201915b50505050509080600401549080600501805461119590611956565b80601f01602080910402602001604051908101604052809291908181526020018280546111c190611956565b801561120e5780601f106111e35761010080835404028352916020019161120e565b820191906000526020600020905b8154815290600101906020018083116111f157829003601f168201915b5050505050908060060154908060070160009054906101000a900460ff16905088565b6000604051905090565b600080fd5b600080fd5b6000819050919050565b61125881611245565b811461126357600080fd5b50565b6000813590506112758161124f565b92915050565b6000602082840312156112915761129061123b565b5b600061129f84828501611266565b91505092915050565b60008115159050919050565b6112bd816112a8565b82525050565b60006020820190506112d860008301846112b4565b92915050565b600080fd5b600080fd5b6000601f19601f8301169050919050565b7f4e487b7100000000000000000000000000000000000000000000000000000000600052604160045260246000fd5b611331826112e8565b810181811067ffffffffffffffff821117156113505761134f6112f9565b5b80604052505050565b6000611363611231565b905061136f8282611328565b919050565b600067ffffffffffffffff82111561138f5761138e6112f9565b5b611398826112e8565b9050602081019050919050565b82818337600083830152505050565b60006113c76113c284611374565b611359565b9050828152602081018484840111156113e3576113e26112e3565b5b6113ee8482856113a5565b509392505050565b600082601f83011261140b5761140a6112de565b5b813561141b8482602086016113b4565b91505092915050565b6000806000806080858703121561143e5761143d61123b565b5b600061144c87828801611266565b945050602061145d87828801611266565b935050604085013567ffffffffffffffff81111561147e5761147d611240565b5b61148a878288016113f6565b925050606085013567ffffffffffffffff8111156114ab576114aa611240565b5b6114b7878288016113f6565b91505092959194509250565b6114cc81611245565b82525050565b600073ffffffffffffffffffffffffffffffffffffffff82169050919050565b60006114fd826114d2565b9050919050565b61150d816114f2565b82525050565b600081519050919050565b600082825260208201905092915050565b60005b8381101561154d578082015181840152602081019050611532565b60008484015250505050565b600061156482611513565b61156e818561151e565b935061157e81856020860161152f565b611587816112e8565b840191505092915050565b600060c0820190506115a760008301896114c3565b6115b46020830188611504565b6115c160408301876114c3565b81810360608301526115d38186611559565b905081810360808301526115e78185611559565b90506115f660a08301846112b4565b979650505050505050565b61160a816114f2565b811461161557600080fd5b50565b60008135905061162781611601565b92915050565b600080600080600060a086880312156116495761164861123b565b5b600061165788828901611618565b955050602061166888828901611618565b945050604086013567ffffffffffffffff81111561168957611688611240565b5b611695888289016113f6565b93505060606116a688828901611266565b925050608086013567ffffffffffffffff8111156116c7576116c6611240565b5b6116d3888289016113f6565b9150509295509295909350565b7f4e487b7100000000000000000000000000000000000000000000000000000000600052602160045260246000fd5b600281106117205761171f6116e0565b5b50565b60008190506117318261170f565b919050565b600061174182611723565b9050919050565b61175181611736565b82525050565b60006101008201905061176d600083018b6114c3565b61177a602083018a611504565b6117876040830189611504565b81810360608301526117998188611559565b90506117a860808301876114c3565b81810360a08301526117ba8186611559565b90506117c960c08301856114c3565b6117d660e0830184611748565b9998505050505050505050565b7f43616e206265207369676e6564206f6e6c79206279206c6963656e7365650000600082015250565b6000611819601e8361151e565b9150611824826117e3565b602082019050919050565b600060208201905081810360008301526118488161180c565b9050919050565b7f4c6963656e736f7220686173206e6f74207369676e6564207965742100000000600082015250565b6000611885601c8361151e565b91506118908261184f565b602082019050919050565b600060208201905081810360008301526118b481611878565b9050919050565b7f506c656173652070617920746865206465636964656420616d6f756e74210000600082015250565b60006118f1601e8361151e565b91506118fc826118bb565b602082019050919050565b60006020820190508181036000830152611920816118e4565b9050919050565b7f4e487b7100000000000000000000000000000000000000000000000000000000600052602260045260246000fd5b6000600282049050600182168061196e57607f821691505b60208210810361198157611980611927565b5b50919050565b60008190508160005260206000209050919050565b60006020601f8301049050919050565b600082821b905092915050565b6000600883026119e97fffffffffffffffffffffffffffffffffffffffffffffffffffffffffffffffff826119ac565b6119f386836119ac565b95508019841693508086168417925050509392505050565b6000819050919050565b6000611a30611a2b611a2684611245565b611a0b565b611245565b9050919050565b6000819050919050565b611a4a83611a15565b611a5e611a5682611a37565b8484546119b9565b825550505050565b600090565b611a73611a66565b611a7e818484611a41565b505050565b5b81811015611aa257611a97600082611a6b565b600181019050611a84565b5050565b601f821115611ae757611ab881611987565b611ac18461199c565b81016020851015611ad0578190505b611ae4611adc8561199c565b830182611a83565b50505b505050565b600082821c905092915050565b6000611b0a60001984600802611aec565b1980831691505092915050565b6000611b238383611af9565b9150826002028217905092915050565b611b3c82611513565b67ffffffffffffffff811115611b5557611b546112f9565b5b611b5f8254611956565b611b6a828285611aa6565b600060209050601f831160018114611b9d5760008415611b8b578287015190505b611b958582611b17565b865550611bfd565b601f198416611bab86611987565b60005b82811015611bd357848901518255600182019150602085019450602081019050611bae565b86831015611bf05784890151611bec601f891682611af9565b8355505b6001600288020188555050505b505050505050565b7f43616e206265207369676e6564206f6e6c79206279206c6963656e736f720000600082015250565b6000611c3b601e8361151e565b9150611c4682611c05565b602082019050919050565b60006020820190508181036000830152611c6a81611c2e565b9050919050565b7f54686520436f6e74726163742073686f756c642062652063616c6c656420627960008201527f204c6963656e736f722100000000000000000000000000000000000000000000602082015250565b6000611ccd602a8361151e565b9150611cd882611c71565b604082019050919050565b60006020820190508181036000830152611cfc81611cc0565b9050919050565b7f546865206164647265737365732063616e277420626520656d70747921000000600082015250565b6000611d39601d8361151e565b9150611d4482611d03565b602082019050919050565b60006020820190508181036000830152611d6881611d2c565b9050919050565b7f546865204c6963656e736f7220616e64204c6963656e7365652061646472657360008201527f732063616e27742062652073616d652100000000000000000000000000000000602082015250565b6000611dcb60308361151e565b9150611dd682611d6f565b604082019050919050565b60006020820190508181036000830152611dfa81611dbe565b9050919050565b7f4e487b7100000000000000000000000000000000000000000000000000000000600052601160045260246000fd5b6000611e3b82611245565b91507fffffffffffffffffffffffffffffffffffffffffffffffffffffffffffffffff8203611e6d57611e6c611e01565b5b600182019050919050565b6000602082019050611e8d60008301846114c3565b9291505056fea264697066735822122095e6eb2a998865c7f12c7f567f48de12fa9e1b6f4b1dc351bf258f8bfb9b0b7d64736f6c63430008110033",
  "linkReferences": {},
  "deployedLinkReferences": {}
}