{
  "_format": "hh-sol-artifact-1",
  "contractName": "ShopRental",
  "sourceName": "contracts/ShopRental.sol",
  "abi": [
    {
      "anonymous": false,
      "inputs": [
        {
          "indexed": false,
          "internalType": "uint256",
          "name": "id",
          "type": "uint256"
        }
      ],
      "name": "token",
      "type": "event"
    },
    {
      "inputs": [
        {
          "internalType": "uint256",
          "name": "_index",
          "type": "uint256"
        }
      ],
      "name": "agreementTerminated",
      "outputs": [],
      "stateMutability": "nonpayable",
      "type": "function"
    },
    {
      "inputs": [
        {
          "internalType": "uint256",
          "name": "",
          "type": "uint256"
        }
      ],
      "name": "agreement_info",
      "outputs": [
        {
          "internalType": "uint256",
          "name": "agreement_id",
          "type": "uint256"
        },
        {
          "internalType": "address payable",
          "name": "landlord_address",
          "type": "address"
        },
        {
          "internalType": "address payable",
          "name": "lessee_address",
          "type": "address"
        },
        {
          "internalType": "string",
          "name": "shopAddress",
          "type": "string"
        },
        {
          "internalType": "uint256",
          "name": "term",
          "type": "uint256"
        },
        {
          "internalType": "uint256",
          "name": "rent",
          "type": "uint256"
        },
        {
          "internalType": "uint256",
          "name": "rentduedate",
          "type": "uint256"
        },
        {
          "internalType": "uint256",
          "name": "timestamp",
          "type": "uint256"
        },
        {
          "internalType": "enum ShopRental.State",
          "name": "state",
          "type": "uint8"
        }
      ],
      "stateMutability": "view",
      "type": "function"
    },
    {
      "inputs": [
        {
          "internalType": "uint256",
          "name": "_index",
          "type": "uint256"
        }
      ],
      "name": "getSigned",
      "outputs": [
        {
          "internalType": "bool",
          "name": "",
          "type": "bool"
        }
      ],
      "stateMutability": "view",
      "type": "function"
    },
    {
      "inputs": [
        {
          "internalType": "uint256",
          "name": "_index",
          "type": "uint256"
        }
      ],
      "name": "getTerminated",
      "outputs": [
        {
          "internalType": "bool",
          "name": "",
          "type": "bool"
        }
      ],
      "stateMutability": "view",
      "type": "function"
    },
    {
      "inputs": [
        {
          "internalType": "uint256",
          "name": "",
          "type": "uint256"
        }
      ],
      "name": "landlord_info",
      "outputs": [
        {
          "internalType": "uint256",
          "name": "agreement_id",
          "type": "uint256"
        },
        {
          "internalType": "address payable",
          "name": "landlord_address",
          "type": "address"
        },
        {
          "internalType": "uint256",
          "name": "aadhar",
          "type": "uint256"
        },
        {
          "internalType": "string",
          "name": "name",
          "type": "string"
        },
        {
          "internalType": "string",
          "name": "fathers_name",
          "type": "string"
        },
        {
          "internalType": "string",
          "name": "addr",
          "type": "string"
        },
        {
          "internalType": "bool",
          "name": "signed",
          "type": "bool"
        }
      ],
      "stateMutability": "view",
      "type": "function"
    },
    {
      "inputs": [
        {
          "internalType": "uint256",
          "name": "",
          "type": "uint256"
        }
      ],
      "name": "lessee_info",
      "outputs": [
        {
          "internalType": "uint256",
          "name": "agreement_id",
          "type": "uint256"
        },
        {
          "internalType": "address payable",
          "name": "lessee_address",
          "type": "address"
        },
        {
          "internalType": "uint256",
          "name": "aadhar",
          "type": "uint256"
        },
        {
          "internalType": "string",
          "name": "name",
          "type": "string"
        },
        {
          "internalType": "string",
          "name": "fathers_name",
          "type": "string"
        },
        {
          "internalType": "string",
          "name": "addr",
          "type": "string"
        },
        {
          "internalType": "bool",
          "name": "signed",
          "type": "bool"
        }
      ],
      "stateMutability": "view",
      "type": "function"
    },
    {
      "inputs": [
        {
          "internalType": "uint256",
          "name": "",
          "type": "uint256"
        }
      ],
      "name": "paidrents",
      "outputs": [
        {
          "internalType": "uint256",
          "name": "id",
          "type": "uint256"
        },
        {
          "internalType": "uint256",
          "name": "time",
          "type": "uint256"
        },
        {
          "internalType": "uint256",
          "name": "value",
          "type": "uint256"
        }
      ],
      "stateMutability": "view",
      "type": "function"
    },
    {
      "inputs": [
        {
          "internalType": "uint256",
          "name": "_id",
          "type": "uint256"
        }
      ],
      "name": "payRent",
      "outputs": [],
      "stateMutability": "payable",
      "type": "function"
    },
    {
      "inputs": [
        {
          "internalType": "address payable",
          "name": "_landlord",
          "type": "address"
        },
        {
          "internalType": "address payable",
          "name": "_lessee",
          "type": "address"
        },
        {
          "internalType": "uint256",
          "name": "_rent",
          "type": "uint256"
        },
        {
          "internalType": "string",
          "name": "_shopAddress",
          "type": "string"
        },
        {
          "internalType": "uint256",
          "name": "_term",
          "type": "uint256"
        },
        {
          "internalType": "uint256",
          "name": "_rentduedate",
          "type": "uint256"
        }
      ],
      "name": "setAgreement",
      "outputs": [],
      "stateMutability": "nonpayable",
      "type": "function"
    },
    {
      "inputs": [
        {
          "internalType": "uint256",
          "name": "_index",
          "type": "uint256"
        },
        {
          "internalType": "uint256",
          "name": "_aadhar_no",
          "type": "uint256"
        },
        {
          "internalType": "string",
          "name": "_name",
          "type": "string"
        },
        {
          "internalType": "string",
          "name": "_fathers_name",
          "type": "string"
        },
        {
          "internalType": "string",
          "name": "_addr",
          "type": "string"
        }
      ],
      "name": "signLandlord",
      "outputs": [],
      "stateMutability": "nonpayable",
      "type": "function"
    },
    {
      "inputs": [
        {
          "internalType": "uint256",
          "name": "_index",
          "type": "uint256"
        },
        {
          "internalType": "uint256",
          "name": "_aadhar_no",
          "type": "uint256"
        },
        {
          "internalType": "string",
          "name": "_name",
          "type": "string"
        },
        {
          "internalType": "string",
          "name": "_fathers_name",
          "type": "string"
        },
        {
          "internalType": "string",
          "name": "_addr",
          "type": "string"
        }
      ],
      "name": "signLessee",
      "outputs": [],
      "stateMutability": "nonpayable",
      "type": "function"
    }
  ],
  "bytecode": "0x6080604052600060025534801561001557600080fd5b506126bb806100256000396000f3fe60806040526004361061009c5760003560e01c806387ee13731161006457806387ee1373146101ac5780638e039bc0146101ef5780639593a91014610218578063c85c1f881461025b578063d9e8843f14610284578063e540400f146102a05761009c565b8063090dfbda146100a157806326d11a21146100ca5780634f5e44281461010757806374017cee146101305780637684c4601461016f575b600080fd5b3480156100ad57600080fd5b506100c860048036038101906100c391906118c3565b6102e5565b005b3480156100d657600080fd5b506100f160048036038101906100ec9190611992565b6105c7565b6040516100fe91906119da565b60405180910390f35b34801561011357600080fd5b5061012e60048036038101906101299190611992565b61063f565b005b34801561013c57600080fd5b5061015760048036038101906101529190611992565b610835565b60405161016693929190611a04565b60405180910390f35b34801561017b57600080fd5b5061019660048036038101906101919190611992565b61085f565b6040516101a391906119da565b60405180910390f35b3480156101b857600080fd5b506101d360048036038101906101ce9190611992565b6108c2565b6040516101e69796959493929190611afb565b60405180910390f35b3480156101fb57600080fd5b50610216600480360381019061021191906118c3565b610ac9565b005b34801561022457600080fd5b5061023f600480360381019061023a9190611992565b610dab565b6040516102529796959493929190611afb565b60405180910390f35b34801561026757600080fd5b50610282600480360381019061027d9190611bab565b610fb2565b005b61029e60048036038101906102999190611992565b611368565b005b3480156102ac57600080fd5b506102c760048036038101906102c29190611992565b611610565b6040516102dc99989796959493929190611ccb565b60405180910390f35b600073ffffffffffffffffffffffffffffffffffffffff163373ffffffffffffffffffffffffffffffffffffffff160361031e57600080fd5b6003600086815260200190815260200160002060020160009054906101000a900473ffffffffffffffffffffffffffffffffffffffff1673ffffffffffffffffffffffffffffffffffffffff163373ffffffffffffffffffffffffffffffffffffffff16146103c2576040517f08c379a00000000000000000000000000000000000000000000000000000000081526004016103b990611dab565b60405180910390fd5b60006003600087815260200190815260200160002060020160009054906101000a900473ffffffffffffffffffffffffffffffffffffffff1690506040518060e001604052808781526020018273ffffffffffffffffffffffffffffffffffffffff16815260200186815260200185815260200184815260200183815260200160011515815250600560008881526020019081526020016000206000820151816000015560208201518160010160006101000a81548173ffffffffffffffffffffffffffffffffffffffff021916908373ffffffffffffffffffffffffffffffffffffffff1602179055506040820151816002015560608201518160030190816104cc9190611fd7565b5060808201518160040190816104e29190611fd7565b5060a08201518160050190816104f89190611fd7565b5060c08201518160060160006101000a81548160ff021916908315150217905550905050600115156004600088815260200190815260200160002060060160009054906101000a900460ff16151514801561057a5750600115156005600088815260200190815260200160002060060160009054906101000a900460ff161515145b156105bf5760016003600088815260200190815260200160002060080160006101000a81548160ff021916908360028111156105b9576105b8611c54565b5b02179055505b505050505050565b6000600115156004600084815260200190815260200160002060060160009054906101000a900460ff1615151480156106275750600115156005600084815260200190815260200160002060060160009054906101000a900460ff161515145b15610635576001905061063a565b600090505b919050565b6003600082815260200190815260200160002060010160009054906101000a900473ffffffffffffffffffffffffffffffffffffffff1673ffffffffffffffffffffffffffffffffffffffff163373ffffffffffffffffffffffffffffffffffffffff16148061071057506003600082815260200190815260200160002060020160009054906101000a900473ffffffffffffffffffffffffffffffffffffffff1673ffffffffffffffffffffffffffffffffffffffff163373ffffffffffffffffffffffffffffffffffffffff16145b61074f576040517f08c379a0000000000000000000000000000000000000000000000000000000008152600401610746906120f5565b60405180910390fd5b6003600082815260200190815260200160002060010160009054906101000a900473ffffffffffffffffffffffffffffffffffffffff1673ffffffffffffffffffffffffffffffffffffffff163373ffffffffffffffffffffffffffffffffffffffff16146107f3576040517f08c379a00000000000000000000000000000000000000000000000000000000081526004016107ea90612187565b60405180910390fd5b60026003600083815260200190815260200160002060080160006101000a81548160ff0219169083600281111561082d5761082c611c54565b5b021790555050565b60066020528060005260406000206000915090508060000154908060010154908060020154905083565b600060028081111561087457610873611c54565b5b6003600084815260200190815260200160002060080160009054906101000a900460ff1660028111156108aa576108a9611c54565b5b036108b857600190506108bd565b600090505b919050565b60056020528060005260406000206000915090508060000154908060010160009054906101000a900473ffffffffffffffffffffffffffffffffffffffff169080600201549080600301805461091790611dfa565b80601f016020809104026020016040519081016040528092919081815260200182805461094390611dfa565b80156109905780601f1061096557610100808354040283529160200191610990565b820191906000526020600020905b81548152906001019060200180831161097357829003601f168201915b5050505050908060040180546109a590611dfa565b80601f01602080910402602001604051908101604052809291908181526020018280546109d190611dfa565b8015610a1e5780601f106109f357610100808354040283529160200191610a1e565b820191906000526020600020905b815481529060010190602001808311610a0157829003601f168201915b505050505090806005018054610a3390611dfa565b80601f0160208091040260200160405190810160405280929190818152602001828054610a5f90611dfa565b8015610aac5780601f10610a8157610100808354040283529160200191610aac565b820191906000526020600020905b815481529060010190602001808311610a8f57829003601f168201915b5050505050908060060160009054906101000a900460ff16905087565b600073ffffffffffffffffffffffffffffffffffffffff163373ffffffffffffffffffffffffffffffffffffffff1603610b0257600080fd5b6003600086815260200190815260200160002060010160009054906101000a900473ffffffffffffffffffffffffffffffffffffffff1673ffffffffffffffffffffffffffffffffffffffff163373ffffffffffffffffffffffffffffffffffffffff1614610ba6576040517f08c379a0000000000000000000000000000000000000000000000000000000008152600401610b9d906121f3565b60405180910390fd5b60006003600087815260200190815260200160002060010160009054906101000a900473ffffffffffffffffffffffffffffffffffffffff1690506040518060e001604052808781526020018273ffffffffffffffffffffffffffffffffffffffff16815260200186815260200185815260200184815260200183815260200160011515815250600460008881526020019081526020016000206000820151816000015560208201518160010160006101000a81548173ffffffffffffffffffffffffffffffffffffffff021916908373ffffffffffffffffffffffffffffffffffffffff160217905550604082015181600201556060820151816003019081610cb09190611fd7565b506080820151816004019081610cc69190611fd7565b5060a0820151816005019081610cdc9190611fd7565b5060c08201518160060160006101000a81548160ff021916908315150217905550905050600115156004600088815260200190815260200160002060060160009054906101000a900460ff161515148015610d5e5750600115156005600088815260200190815260200160002060060160009054906101000a900460ff161515145b15610da35760016003600088815260200190815260200160002060080160006101000a81548160ff02191690836002811115610d9d57610d9c611c54565b5b02179055505b505050505050565b60046020528060005260406000206000915090508060000154908060010160009054906101000a900473ffffffffffffffffffffffffffffffffffffffff1690806002015490806003018054610e0090611dfa565b80601f0160208091040260200160405190810160405280929190818152602001828054610e2c90611dfa565b8015610e795780601f10610e4e57610100808354040283529160200191610e79565b820191906000526020600020905b815481529060010190602001808311610e5c57829003601f168201915b505050505090806004018054610e8e90611dfa565b80601f0160208091040260200160405190810160405280929190818152602001828054610eba90611dfa565b8015610f075780601f10610edc57610100808354040283529160200191610f07565b820191906000526020600020905b815481529060010190602001808311610eea57829003601f168201915b505050505090806005018054610f1c90611dfa565b80601f0160208091040260200160405190810160405280929190818152602001828054610f4890611dfa565b8015610f955780601f10610f6a57610100808354040283529160200191610f95565b820191906000526020600020905b815481529060010190602001808311610f7857829003601f168201915b5050505050908060060160009054906101000a900460ff16905087565b600073ffffffffffffffffffffffffffffffffffffffff163373ffffffffffffffffffffffffffffffffffffffff1603610feb57600080fd5b8573ffffffffffffffffffffffffffffffffffffffff163373ffffffffffffffffffffffffffffffffffffffff1614611059576040517f08c379a000000000000000000000000000000000000000000000000000000000815260040161105090612285565b60405180910390fd5b600073ffffffffffffffffffffffffffffffffffffffff168673ffffffffffffffffffffffffffffffffffffffff161415806110c25750600073ffffffffffffffffffffffffffffffffffffffff168573ffffffffffffffffffffffffffffffffffffffff1614155b611101576040517f08c379a00000000000000000000000000000000000000000000000000000000081526004016110f8906122f1565b60405180910390fd5b8473ffffffffffffffffffffffffffffffffffffffff168673ffffffffffffffffffffffffffffffffffffffff160361116f576040517f08c379a000000000000000000000000000000000000000000000000000000000815260040161116690612383565b60405180910390fd5b60026000815480929190611182906123d2565b919050555060405180610120016040528060025481526020018773ffffffffffffffffffffffffffffffffffffffff1681526020018673ffffffffffffffffffffffffffffffffffffffff1681526020018481526020018381526020018581526020018281526020014281526020016000600281111561120557611204611c54565b5b8152506003600060025481526020019081526020016000206000820151816000015560208201518160010160006101000a81548173ffffffffffffffffffffffffffffffffffffffff021916908373ffffffffffffffffffffffffffffffffffffffff16021790555060408201518160020160006101000a81548173ffffffffffffffffffffffffffffffffffffffff021916908373ffffffffffffffffffffffffffffffffffffffff16021790555060608201518160030190816112ca9190611fd7565b506080820151816004015560a0820151816005015560c0820151816006015560e082015181600701556101008201518160080160006101000a81548160ff0219169083600281111561131f5761131e611c54565b5b02179055509050507f044215c67d3b8d56e3fe696cb171f256405bb8bacb42fb78bfb2aa7df629eb36600254604051611358919061241a565b60405180910390a1505050505050565b600115156004600083815260200190815260200160002060060160009054906101000a900460ff161515146113d2576040517f08c379a00000000000000000000000000000000000000000000000000000000081526004016113c990612481565b60405180910390fd5b6003600082815260200190815260200160002060050154341461142a576040517f08c379a000000000000000000000000000000000000000000000000000000000815260040161142190612513565b60405180910390fd5b6003600082815260200190815260200160002060020160009054906101000a900473ffffffffffffffffffffffffffffffffffffffff1673ffffffffffffffffffffffffffffffffffffffff163373ffffffffffffffffffffffffffffffffffffffff16146114ce576040517f08c379a00000000000000000000000000000000000000000000000000000000081526004016114c59061257f565b60405180910390fd5b60008060019054906101000a900473ffffffffffffffffffffffffffffffffffffffff1673ffffffffffffffffffffffffffffffffffffffff1634604051611515906125d0565b60006040518083038185875af1925050503d8060008114611552576040519150601f19603f3d011682016040523d82523d6000602084013e611557565b606091505b505090508061159b576040517f08c379a000000000000000000000000000000000000000000000000000000000815260040161159290612631565b60405180910390fd5b6040518060600160405280600160066000868152602001908152602001600020600001546115c99190612651565b815260200142815260200134815250600660008481526020019081526020016000206000820151816000015560208201518160010155604082015181600201559050505050565b60036020528060005260406000206000915090508060000154908060010160009054906101000a900473ffffffffffffffffffffffffffffffffffffffff16908060020160009054906101000a900473ffffffffffffffffffffffffffffffffffffffff169080600301805461168590611dfa565b80601f01602080910402602001604051908101604052809291908181526020018280546116b190611dfa565b80156116fe5780601f106116d3576101008083540402835291602001916116fe565b820191906000526020600020905b8154815290600101906020018083116116e157829003601f168201915b5050505050908060040154908060050154908060060154908060070154908060080160009054906101000a900460ff16905089565b6000604051905090565b600080fd5b600080fd5b6000819050919050565b61175a81611747565b811461176557600080fd5b50565b60008135905061177781611751565b92915050565b600080fd5b600080fd5b6000601f19601f8301169050919050565b7f4e487b7100000000000000000000000000000000000000000000000000000000600052604160045260246000fd5b6117d082611787565b810181811067ffffffffffffffff821117156117ef576117ee611798565b5b80604052505050565b6000611802611733565b905061180e82826117c7565b919050565b600067ffffffffffffffff82111561182e5761182d611798565b5b61183782611787565b9050602081019050919050565b82818337600083830152505050565b600061186661186184611813565b6117f8565b90508281526020810184848401111561188257611881611782565b5b61188d848285611844565b509392505050565b600082601f8301126118aa576118a961177d565b5b81356118ba848260208601611853565b91505092915050565b600080600080600060a086880312156118df576118de61173d565b5b60006118ed88828901611768565b95505060206118fe88828901611768565b945050604086013567ffffffffffffffff81111561191f5761191e611742565b5b61192b88828901611895565b935050606086013567ffffffffffffffff81111561194c5761194b611742565b5b61195888828901611895565b925050608086013567ffffffffffffffff81111561197957611978611742565b5b61198588828901611895565b9150509295509295909350565b6000602082840312156119a8576119a761173d565b5b60006119b684828501611768565b91505092915050565b60008115159050919050565b6119d4816119bf565b82525050565b60006020820190506119ef60008301846119cb565b92915050565b6119fe81611747565b82525050565b6000606082019050611a1960008301866119f5565b611a2660208301856119f5565b611a3360408301846119f5565b949350505050565b600073ffffffffffffffffffffffffffffffffffffffff82169050919050565b6000611a6682611a3b565b9050919050565b611a7681611a5b565b82525050565b600081519050919050565b600082825260208201905092915050565b60005b83811015611ab6578082015181840152602081019050611a9b565b60008484015250505050565b6000611acd82611a7c565b611ad78185611a87565b9350611ae7818560208601611a98565b611af081611787565b840191505092915050565b600060e082019050611b10600083018a6119f5565b611b1d6020830189611a6d565b611b2a60408301886119f5565b8181036060830152611b3c8187611ac2565b90508181036080830152611b508186611ac2565b905081810360a0830152611b648185611ac2565b9050611b7360c08301846119cb565b98975050505050505050565b611b8881611a5b565b8114611b9357600080fd5b50565b600081359050611ba581611b7f565b92915050565b60008060008060008060c08789031215611bc857611bc761173d565b5b6000611bd689828a01611b96565b9650506020611be789828a01611b96565b9550506040611bf889828a01611768565b945050606087013567ffffffffffffffff811115611c1957611c18611742565b5b611c2589828a01611895565b9350506080611c3689828a01611768565b92505060a0611c4789828a01611768565b9150509295509295509295565b7f4e487b7100000000000000000000000000000000000000000000000000000000600052602160045260246000fd5b60038110611c9457611c93611c54565b5b50565b6000819050611ca582611c83565b919050565b6000611cb582611c97565b9050919050565b611cc581611caa565b82525050565b600061012082019050611ce1600083018c6119f5565b611cee602083018b611a6d565b611cfb604083018a611a6d565b8181036060830152611d0d8189611ac2565b9050611d1c60808301886119f5565b611d2960a08301876119f5565b611d3660c08301866119f5565b611d4360e08301856119f5565b611d51610100830184611cbc565b9a9950505050505050505050565b7f43616e206265207369676e6564206f6e6c79206279204c657373656500000000600082015250565b6000611d95601c83611a87565b9150611da082611d5f565b602082019050919050565b60006020820190508181036000830152611dc481611d88565b9050919050565b7f4e487b7100000000000000000000000000000000000000000000000000000000600052602260045260246000fd5b60006002820490506001821680611e1257607f821691505b602082108103611e2557611e24611dcb565b5b50919050565b60008190508160005260206000209050919050565b60006020601f8301049050919050565b600082821b905092915050565b600060088302611e8d7fffffffffffffffffffffffffffffffffffffffffffffffffffffffffffffffff82611e50565b611e978683611e50565b95508019841693508086168417925050509392505050565b6000819050919050565b6000611ed4611ecf611eca84611747565b611eaf565b611747565b9050919050565b6000819050919050565b611eee83611eb9565b611f02611efa82611edb565b848454611e5d565b825550505050565b600090565b611f17611f0a565b611f22818484611ee5565b505050565b5b81811015611f4657611f3b600082611f0f565b600181019050611f28565b5050565b601f821115611f8b57611f5c81611e2b565b611f6584611e40565b81016020851015611f74578190505b611f88611f8085611e40565b830182611f27565b50505b505050565b600082821c905092915050565b6000611fae60001984600802611f90565b1980831691505092915050565b6000611fc78383611f9d565b9150826002028217905092915050565b611fe082611a7c565b67ffffffffffffffff811115611ff957611ff8611798565b5b6120038254611dfa565b61200e828285611f4a565b600060209050601f831160018114612041576000841561202f578287015190505b6120398582611fbb565b8655506120a1565b601f19841661204f86611e2b565b60005b8281101561207757848901518255600182019150602085019450602081019050612052565b868310156120945784890151612090601f891682611f9d565b8355505b6001600288020188555050505b505050505050565b7f6f6e65206f662075206973206120667261756421000000000000000000000000600082015250565b60006120df601483611a87565b91506120ea826120a9565b602082019050919050565b6000602082019050818103600083015261210e816120d2565b9050919050565b7f4f6e6c79206c616e646c6f72642063616e205465726d696e61746520636f6e7460008201527f7261637421000000000000000000000000000000000000000000000000000000602082015250565b6000612171602583611a87565b915061217c82612115565b604082019050919050565b600060208201905081810360008301526121a081612164565b9050919050565b7f43616e206265207369676e6564206f6e6c79206279204c616e646c6f72640000600082015250565b60006121dd601e83611a87565b91506121e8826121a7565b602082019050919050565b6000602082019050818103600083015261220c816121d0565b9050919050565b7f54686520436f6e74726163742073686f756c642062652063616c6c656420627960008201527f204c616e646c6f72642100000000000000000000000000000000000000000000602082015250565b600061226f602a83611a87565b915061227a82612213565b604082019050919050565b6000602082019050818103600083015261229e81612262565b9050919050565b7f546865206164647265737365732063616e7420626520656d7074792100000000600082015250565b60006122db601c83611a87565b91506122e6826122a5565b602082019050919050565b6000602082019050818103600083015261230a816122ce565b9050919050565b7f546865204c616e646c6f726420616e64206c657373656520616464726573732060008201527f63616e742062652073616d652100000000000000000000000000000000000000602082015250565b600061236d602d83611a87565b915061237882612311565b604082019050919050565b6000602082019050818103600083015261239c81612360565b9050919050565b7f4e487b7100000000000000000000000000000000000000000000000000000000600052601160045260246000fd5b60006123dd82611747565b91507fffffffffffffffffffffffffffffffffffffffffffffffffffffffffffffffff820361240f5761240e6123a3565b5b600182019050919050565b600060208201905061242f60008301846119f5565b92915050565b7f5369676e2074686520436f6e7472616374206669727374210000000000000000600082015250565b600061246b601883611a87565b915061247682612435565b602082019050919050565b6000602082019050818103600083015261249a8161245e565b9050919050565b7f54686520696e70757420616d6f756e74206973206e6f7420746865206465636960008201527f6465642072656e7420616d6f756e742100000000000000000000000000000000602082015250565b60006124fd603083611a87565b9150612508826124a1565b604082019050919050565b6000602082019050818103600083015261252c816124f0565b9050919050565b7f4f6e6c79206c65737365652063616e207061792072656e742100000000000000600082015250565b6000612569601983611a87565b915061257482612533565b602082019050919050565b600060208201905081810360008301526125988161255c565b9050919050565b600081905092915050565b50565b60006125ba60008361259f565b91506125c5826125aa565b600082019050919050565b60006125db826125ad565b9150819050919050565b7f4661696c656420746f2073656e642072656e7400000000000000000000000000600082015250565b600061261b601383611a87565b9150612626826125e5565b602082019050919050565b6000602082019050818103600083015261264a8161260e565b9050919050565b600061265c82611747565b915061266783611747565b925082820190508082111561267f5761267e6123a3565b5b9291505056fea2646970667358221220d24f7dc1df01256b6262ab77d05f233b0bb626b3232016cd741a9c77d1f2aec164736f6c63430008110033",
  "linkReferences": {},
  "deployedLinkReferences": {}
}