{
  "_format": "hh-sol-artifact-1",
  "contractName": "ShopRental",
  "sourceName": "contracts/ShopRental.sol",
  "abi": [
    {
      "anonymous": false,
      "inputs": [
        {
          "indexed": false,
          "internalType": "uint256",
          "name": "id",
          "type": "uint256"
        }
      ],
      "name": "token",
      "type": "event"
    },
    {
      "inputs": [
        {
          "internalType": "uint256",
          "name": "_index",
          "type": "uint256"
        }
      ],
      "name": "agreementTerminated",
      "outputs": [],
      "stateMutability": "nonpayable",
      "type": "function"
    },
    {
      "inputs": [
        {
          "internalType": "uint256",
          "name": "",
          "type": "uint256"
        }
      ],
      "name": "agreement_info",
      "outputs": [
        {
          "internalType": "uint256",
          "name": "agreement_id",
          "type": "uint256"
        },
        {
          "internalType": "address payable",
          "name": "landlord_address",
          "type": "address"
        },
        {
          "internalType": "address payable",
          "name": "lessee_address",
          "type": "address"
        },
        {
          "internalType": "string",
          "name": "shopAddress",
          "type": "string"
        },
        {
          "internalType": "uint256",
          "name": "term",
          "type": "uint256"
        },
        {
          "internalType": "uint256",
          "name": "rent",
          "type": "uint256"
        },
        {
          "internalType": "uint256",
          "name": "rentduedate",
          "type": "uint256"
        },
        {
          "internalType": "uint256",
          "name": "timestamp",
          "type": "uint256"
        },
        {
          "internalType": "enum ShopRental.State",
          "name": "state",
          "type": "uint8"
        }
      ],
      "stateMutability": "view",
      "type": "function"
    },
    {
      "inputs": [
        {
          "internalType": "uint256",
          "name": "_index",
          "type": "uint256"
        }
      ],
      "name": "getSigned",
      "outputs": [
        {
          "internalType": "bool",
          "name": "",
          "type": "bool"
        }
      ],
      "stateMutability": "view",
      "type": "function"
    },
    {
      "inputs": [
        {
          "internalType": "uint256",
          "name": "_index",
          "type": "uint256"
        }
      ],
      "name": "getTerminated",
      "outputs": [
        {
          "internalType": "bool",
          "name": "",
          "type": "bool"
        }
      ],
      "stateMutability": "view",
      "type": "function"
    },
    {
      "inputs": [
        {
          "internalType": "uint256",
          "name": "",
          "type": "uint256"
        }
      ],
      "name": "landlord_info",
      "outputs": [
        {
          "internalType": "uint256",
          "name": "agreement_id",
          "type": "uint256"
        },
        {
          "internalType": "address payable",
          "name": "landlord_address",
          "type": "address"
        },
        {
          "internalType": "uint256",
          "name": "aadhar",
          "type": "uint256"
        },
        {
          "internalType": "string",
          "name": "name",
          "type": "string"
        },
        {
          "internalType": "string",
          "name": "fathers_name",
          "type": "string"
        },
        {
          "internalType": "string",
          "name": "addr",
          "type": "string"
        },
        {
          "internalType": "bool",
          "name": "signed",
          "type": "bool"
        }
      ],
      "stateMutability": "view",
      "type": "function"
    },
    {
      "inputs": [
        {
          "internalType": "uint256",
          "name": "",
          "type": "uint256"
        }
      ],
      "name": "lessee_info",
      "outputs": [
        {
          "internalType": "uint256",
          "name": "agreement_id",
          "type": "uint256"
        },
        {
          "internalType": "address payable",
          "name": "lessee_address",
          "type": "address"
        },
        {
          "internalType": "uint256",
          "name": "aadhar",
          "type": "uint256"
        },
        {
          "internalType": "string",
          "name": "name",
          "type": "string"
        },
        {
          "internalType": "string",
          "name": "fathers_name",
          "type": "string"
        },
        {
          "internalType": "string",
          "name": "addr",
          "type": "string"
        },
        {
          "internalType": "bool",
          "name": "signed",
          "type": "bool"
        }
      ],
      "stateMutability": "view",
      "type": "function"
    },
    {
      "inputs": [
        {
          "internalType": "uint256",
          "name": "",
          "type": "uint256"
        }
      ],
      "name": "paidrents",
      "outputs": [
        {
          "internalType": "uint256",
          "name": "id",
          "type": "uint256"
        },
        {
          "internalType": "uint256",
          "name": "time",
          "type": "uint256"
        },
        {
          "internalType": "uint256",
          "name": "value",
          "type": "uint256"
        }
      ],
      "stateMutability": "view",
      "type": "function"
    },
    {
      "inputs": [
        {
          "internalType": "uint256",
          "name": "_id",
          "type": "uint256"
        }
      ],
      "name": "payRent",
      "outputs": [],
      "stateMutability": "payable",
      "type": "function"
    },
    {
      "inputs": [
        {
          "internalType": "address payable",
          "name": "_landlord",
          "type": "address"
        },
        {
          "internalType": "address payable",
          "name": "_lessee",
          "type": "address"
        },
        {
          "internalType": "uint256",
          "name": "_rent",
          "type": "uint256"
        },
        {
          "internalType": "string",
          "name": "_shopAddress",
          "type": "string"
        },
        {
          "internalType": "uint256",
          "name": "_term",
          "type": "uint256"
        },
        {
          "internalType": "uint256",
          "name": "_rentduedate",
          "type": "uint256"
        }
      ],
      "name": "setAgreement",
      "outputs": [],
      "stateMutability": "nonpayable",
      "type": "function"
    },
    {
      "inputs": [
        {
          "internalType": "uint256",
          "name": "_index",
          "type": "uint256"
        },
        {
          "internalType": "uint256",
          "name": "_aadhar_no",
          "type": "uint256"
        },
        {
          "internalType": "string",
          "name": "_name",
          "type": "string"
        },
        {
          "internalType": "string",
          "name": "_fathers_name",
          "type": "string"
        },
        {
          "internalType": "string",
          "name": "_addr",
          "type": "string"
        }
      ],
      "name": "signLandlord",
      "outputs": [],
      "stateMutability": "nonpayable",
      "type": "function"
    },
    {
      "inputs": [
        {
          "internalType": "uint256",
          "name": "_index",
          "type": "uint256"
        },
        {
          "internalType": "uint256",
          "name": "_aadhar_no",
          "type": "uint256"
        },
        {
          "internalType": "string",
          "name": "_name",
          "type": "string"
        },
        {
          "internalType": "string",
          "name": "_fathers_name",
          "type": "string"
        },
        {
          "internalType": "string",
          "name": "_addr",
          "type": "string"
        }
      ],
      "name": "signLessee",
      "outputs": [],
      "stateMutability": "nonpayable",
      "type": "function"
    },
    {
      "inputs": [],
      "name": "total_rental",
      "outputs": [
        {
          "internalType": "uint256",
          "name": "",
          "type": "uint256"
        }
      ],
      "stateMutability": "view",
      "type": "function"
    }
  ],
  "bytecode": "0x60806040526000600255600060035534801561001a57600080fd5b5061270f8061002a6000396000f3fe6080604052600436106100a75760003560e01c806387ee13731161006457806387ee1373146101e25780638e039bc0146102255780639593a9101461024e578063c85c1f8814610291578063d9e8843f146102ba578063e540400f146102d6576100a7565b8063090dfbda146100ac57806326d11a21146100d55780634f5e4428146101125780635e9c9d5e1461013b57806374017cee146101665780637684c460146101a5575b600080fd5b3480156100b857600080fd5b506100d360048036038101906100ce9190611917565b61031b565b005b3480156100e157600080fd5b506100fc60048036038101906100f791906119e6565b6105fd565b6040516101099190611a2e565b60405180910390f35b34801561011e57600080fd5b50610139600480360381019061013491906119e6565b610675565b005b34801561014757600080fd5b5061015061086b565b60405161015d9190611a58565b60405180910390f35b34801561017257600080fd5b5061018d600480360381019061018891906119e6565b610871565b60405161019c93929190611a73565b60405180910390f35b3480156101b157600080fd5b506101cc60048036038101906101c791906119e6565b61089b565b6040516101d99190611a2e565b60405180910390f35b3480156101ee57600080fd5b50610209600480360381019061020491906119e6565b6108fe565b60405161021c9796959493929190611b6a565b60405180910390f35b34801561023157600080fd5b5061024c60048036038101906102479190611917565b610b05565b005b34801561025a57600080fd5b50610275600480360381019061027091906119e6565b610de7565b6040516102889796959493929190611b6a565b60405180910390f35b34801561029d57600080fd5b506102b860048036038101906102b39190611c1a565b610fee565b005b6102d460048036038101906102cf91906119e6565b6113bc565b005b3480156102e257600080fd5b506102fd60048036038101906102f891906119e6565b611664565b60405161031299989796959493929190611d3a565b60405180910390f35b600073ffffffffffffffffffffffffffffffffffffffff163373ffffffffffffffffffffffffffffffffffffffff160361035457600080fd5b6004600086815260200190815260200160002060020160009054906101000a900473ffffffffffffffffffffffffffffffffffffffff1673ffffffffffffffffffffffffffffffffffffffff163373ffffffffffffffffffffffffffffffffffffffff16146103f8576040517f08c379a00000000000000000000000000000000000000000000000000000000081526004016103ef90611e1a565b60405180910390fd5b60006004600087815260200190815260200160002060020160009054906101000a900473ffffffffffffffffffffffffffffffffffffffff1690506040518060e001604052808781526020018273ffffffffffffffffffffffffffffffffffffffff16815260200186815260200185815260200184815260200183815260200160011515815250600660008881526020019081526020016000206000820151816000015560208201518160010160006101000a81548173ffffffffffffffffffffffffffffffffffffffff021916908373ffffffffffffffffffffffffffffffffffffffff1602179055506040820151816002015560608201518160030190816105029190612046565b5060808201518160040190816105189190612046565b5060a082015181600501908161052e9190612046565b5060c08201518160060160006101000a81548160ff021916908315150217905550905050600115156005600088815260200190815260200160002060060160009054906101000a900460ff1615151480156105b05750600115156006600088815260200190815260200160002060060160009054906101000a900460ff161515145b156105f55760016004600088815260200190815260200160002060080160006101000a81548160ff021916908360028111156105ef576105ee611cc3565b5b02179055505b505050505050565b6000600115156005600084815260200190815260200160002060060160009054906101000a900460ff16151514801561065d5750600115156006600084815260200190815260200160002060060160009054906101000a900460ff161515145b1561066b5760019050610670565b600090505b919050565b6004600082815260200190815260200160002060010160009054906101000a900473ffffffffffffffffffffffffffffffffffffffff1673ffffffffffffffffffffffffffffffffffffffff163373ffffffffffffffffffffffffffffffffffffffff16148061074657506004600082815260200190815260200160002060020160009054906101000a900473ffffffffffffffffffffffffffffffffffffffff1673ffffffffffffffffffffffffffffffffffffffff163373ffffffffffffffffffffffffffffffffffffffff16145b610785576040517f08c379a000000000000000000000000000000000000000000000000000000000815260040161077c90612164565b60405180910390fd5b6004600082815260200190815260200160002060010160009054906101000a900473ffffffffffffffffffffffffffffffffffffffff1673ffffffffffffffffffffffffffffffffffffffff163373ffffffffffffffffffffffffffffffffffffffff1614610829576040517f08c379a0000000000000000000000000000000000000000000000000000000008152600401610820906121f6565b60405180910390fd5b60026004600083815260200190815260200160002060080160006101000a81548160ff0219169083600281111561086357610862611cc3565b5b021790555050565b60035481565b60076020528060005260406000206000915090508060000154908060010154908060020154905083565b60006002808111156108b0576108af611cc3565b5b6004600084815260200190815260200160002060080160009054906101000a900460ff1660028111156108e6576108e5611cc3565b5b036108f457600190506108f9565b600090505b919050565b60066020528060005260406000206000915090508060000154908060010160009054906101000a900473ffffffffffffffffffffffffffffffffffffffff169080600201549080600301805461095390611e69565b80601f016020809104026020016040519081016040528092919081815260200182805461097f90611e69565b80156109cc5780601f106109a1576101008083540402835291602001916109cc565b820191906000526020600020905b8154815290600101906020018083116109af57829003601f168201915b5050505050908060040180546109e190611e69565b80601f0160208091040260200160405190810160405280929190818152602001828054610a0d90611e69565b8015610a5a5780601f10610a2f57610100808354040283529160200191610a5a565b820191906000526020600020905b815481529060010190602001808311610a3d57829003601f168201915b505050505090806005018054610a6f90611e69565b80601f0160208091040260200160405190810160405280929190818152602001828054610a9b90611e69565b8015610ae85780601f10610abd57610100808354040283529160200191610ae8565b820191906000526020600020905b815481529060010190602001808311610acb57829003601f168201915b5050505050908060060160009054906101000a900460ff16905087565b600073ffffffffffffffffffffffffffffffffffffffff163373ffffffffffffffffffffffffffffffffffffffff1603610b3e57600080fd5b6004600086815260200190815260200160002060010160009054906101000a900473ffffffffffffffffffffffffffffffffffffffff1673ffffffffffffffffffffffffffffffffffffffff163373ffffffffffffffffffffffffffffffffffffffff1614610be2576040517f08c379a0000000000000000000000000000000000000000000000000000000008152600401610bd990612262565b60405180910390fd5b60006004600087815260200190815260200160002060010160009054906101000a900473ffffffffffffffffffffffffffffffffffffffff1690506040518060e001604052808781526020018273ffffffffffffffffffffffffffffffffffffffff16815260200186815260200185815260200184815260200183815260200160011515815250600560008881526020019081526020016000206000820151816000015560208201518160010160006101000a81548173ffffffffffffffffffffffffffffffffffffffff021916908373ffffffffffffffffffffffffffffffffffffffff160217905550604082015181600201556060820151816003019081610cec9190612046565b506080820151816004019081610d029190612046565b5060a0820151816005019081610d189190612046565b5060c08201518160060160006101000a81548160ff021916908315150217905550905050600115156005600088815260200190815260200160002060060160009054906101000a900460ff161515148015610d9a5750600115156006600088815260200190815260200160002060060160009054906101000a900460ff161515145b15610ddf5760016004600088815260200190815260200160002060080160006101000a81548160ff02191690836002811115610dd957610dd8611cc3565b5b02179055505b505050505050565b60056020528060005260406000206000915090508060000154908060010160009054906101000a900473ffffffffffffffffffffffffffffffffffffffff1690806002015490806003018054610e3c90611e69565b80601f0160208091040260200160405190810160405280929190818152602001828054610e6890611e69565b8015610eb55780601f10610e8a57610100808354040283529160200191610eb5565b820191906000526020600020905b815481529060010190602001808311610e9857829003601f168201915b505050505090806004018054610eca90611e69565b80601f0160208091040260200160405190810160405280929190818152602001828054610ef690611e69565b8015610f435780601f10610f1857610100808354040283529160200191610f43565b820191906000526020600020905b815481529060010190602001808311610f2657829003601f168201915b505050505090806005018054610f5890611e69565b80601f0160208091040260200160405190810160405280929190818152602001828054610f8490611e69565b8015610fd15780601f10610fa657610100808354040283529160200191610fd1565b820191906000526020600020905b815481529060010190602001808311610fb457829003601f168201915b5050505050908060060160009054906101000a900460ff16905087565b600073ffffffffffffffffffffffffffffffffffffffff163373ffffffffffffffffffffffffffffffffffffffff160361102757600080fd5b8573ffffffffffffffffffffffffffffffffffffffff163373ffffffffffffffffffffffffffffffffffffffff1614611095576040517f08c379a000000000000000000000000000000000000000000000000000000000815260040161108c906122f4565b60405180910390fd5b600073ffffffffffffffffffffffffffffffffffffffff168673ffffffffffffffffffffffffffffffffffffffff161415806110fe5750600073ffffffffffffffffffffffffffffffffffffffff168573ffffffffffffffffffffffffffffffffffffffff1614155b61113d576040517f08c379a000000000000000000000000000000000000000000000000000000000815260040161113490612360565b60405180910390fd5b8473ffffffffffffffffffffffffffffffffffffffff168673ffffffffffffffffffffffffffffffffffffffff16036111ab576040517f08c379a00000000000000000000000000000000000000000000000000000000081526004016111a2906123f2565b60405180910390fd5b600260008154809291906111be90612441565b919050555060405180610120016040528060025481526020018773ffffffffffffffffffffffffffffffffffffffff1681526020018673ffffffffffffffffffffffffffffffffffffffff1681526020018481526020018381526020018581526020018281526020014281526020016000600281111561124157611240611cc3565b5b8152506004600060025481526020019081526020016000206000820151816000015560208201518160010160006101000a81548173ffffffffffffffffffffffffffffffffffffffff021916908373ffffffffffffffffffffffffffffffffffffffff16021790555060408201518160020160006101000a81548173ffffffffffffffffffffffffffffffffffffffff021916908373ffffffffffffffffffffffffffffffffffffffff16021790555060608201518160030190816113069190612046565b506080820151816004015560a0820151816005015560c0820151816006015560e082015181600701556101008201518160080160006101000a81548160ff0219169083600281111561135b5761135a611cc3565b5b02179055509050506003600081548092919061137690612441565b91905055507f044215c67d3b8d56e3fe696cb171f256405bb8bacb42fb78bfb2aa7df629eb366002546040516113ac9190611a58565b60405180910390a1505050505050565b600115156005600083815260200190815260200160002060060160009054906101000a900460ff16151514611426576040517f08c379a000000000000000000000000000000000000000000000000000000000815260040161141d906124d5565b60405180910390fd5b6004600082815260200190815260200160002060050154341461147e576040517f08c379a000000000000000000000000000000000000000000000000000000000815260040161147590612567565b60405180910390fd5b6004600082815260200190815260200160002060020160009054906101000a900473ffffffffffffffffffffffffffffffffffffffff1673ffffffffffffffffffffffffffffffffffffffff163373ffffffffffffffffffffffffffffffffffffffff1614611522576040517f08c379a0000000000000000000000000000000000000000000000000000000008152600401611519906125d3565b60405180910390fd5b60008060019054906101000a900473ffffffffffffffffffffffffffffffffffffffff1673ffffffffffffffffffffffffffffffffffffffff163460405161156990612624565b60006040518083038185875af1925050503d80600081146115a6576040519150601f19603f3d011682016040523d82523d6000602084013e6115ab565b606091505b50509050806115ef576040517f08c379a00000000000000000000000000000000000000000000000000000000081526004016115e690612685565b60405180910390fd5b60405180606001604052806001600760008681526020019081526020016000206000015461161d91906126a5565b815260200142815260200134815250600760008481526020019081526020016000206000820151816000015560208201518160010155604082015181600201559050505050565b60046020528060005260406000206000915090508060000154908060010160009054906101000a900473ffffffffffffffffffffffffffffffffffffffff16908060020160009054906101000a900473ffffffffffffffffffffffffffffffffffffffff16908060030180546116d990611e69565b80601f016020809104026020016040519081016040528092919081815260200182805461170590611e69565b80156117525780601f1061172757610100808354040283529160200191611752565b820191906000526020600020905b81548152906001019060200180831161173557829003601f168201915b5050505050908060040154908060050154908060060154908060070154908060080160009054906101000a900460ff16905089565b6000604051905090565b600080fd5b600080fd5b6000819050919050565b6117ae8161179b565b81146117b957600080fd5b50565b6000813590506117cb816117a5565b92915050565b600080fd5b600080fd5b6000601f19601f8301169050919050565b7f4e487b7100000000000000000000000000000000000000000000000000000000600052604160045260246000fd5b611824826117db565b810181811067ffffffffffffffff82111715611843576118426117ec565b5b80604052505050565b6000611856611787565b9050611862828261181b565b919050565b600067ffffffffffffffff821115611882576118816117ec565b5b61188b826117db565b9050602081019050919050565b82818337600083830152505050565b60006118ba6118b584611867565b61184c565b9050828152602081018484840111156118d6576118d56117d6565b5b6118e1848285611898565b509392505050565b600082601f8301126118fe576118fd6117d1565b5b813561190e8482602086016118a7565b91505092915050565b600080600080600060a0868803121561193357611932611791565b5b6000611941888289016117bc565b9550506020611952888289016117bc565b945050604086013567ffffffffffffffff81111561197357611972611796565b5b61197f888289016118e9565b935050606086013567ffffffffffffffff8111156119a05761199f611796565b5b6119ac888289016118e9565b925050608086013567ffffffffffffffff8111156119cd576119cc611796565b5b6119d9888289016118e9565b9150509295509295909350565b6000602082840312156119fc576119fb611791565b5b6000611a0a848285016117bc565b91505092915050565b60008115159050919050565b611a2881611a13565b82525050565b6000602082019050611a436000830184611a1f565b92915050565b611a528161179b565b82525050565b6000602082019050611a6d6000830184611a49565b92915050565b6000606082019050611a886000830186611a49565b611a956020830185611a49565b611aa26040830184611a49565b949350505050565b600073ffffffffffffffffffffffffffffffffffffffff82169050919050565b6000611ad582611aaa565b9050919050565b611ae581611aca565b82525050565b600081519050919050565b600082825260208201905092915050565b60005b83811015611b25578082015181840152602081019050611b0a565b60008484015250505050565b6000611b3c82611aeb565b611b468185611af6565b9350611b56818560208601611b07565b611b5f816117db565b840191505092915050565b600060e082019050611b7f600083018a611a49565b611b8c6020830189611adc565b611b996040830188611a49565b8181036060830152611bab8187611b31565b90508181036080830152611bbf8186611b31565b905081810360a0830152611bd38185611b31565b9050611be260c0830184611a1f565b98975050505050505050565b611bf781611aca565b8114611c0257600080fd5b50565b600081359050611c1481611bee565b92915050565b60008060008060008060c08789031215611c3757611c36611791565b5b6000611c4589828a01611c05565b9650506020611c5689828a01611c05565b9550506040611c6789828a016117bc565b945050606087013567ffffffffffffffff811115611c8857611c87611796565b5b611c9489828a016118e9565b9350506080611ca589828a016117bc565b92505060a0611cb689828a016117bc565b9150509295509295509295565b7f4e487b7100000000000000000000000000000000000000000000000000000000600052602160045260246000fd5b60038110611d0357611d02611cc3565b5b50565b6000819050611d1482611cf2565b919050565b6000611d2482611d06565b9050919050565b611d3481611d19565b82525050565b600061012082019050611d50600083018c611a49565b611d5d602083018b611adc565b611d6a604083018a611adc565b8181036060830152611d7c8189611b31565b9050611d8b6080830188611a49565b611d9860a0830187611a49565b611da560c0830186611a49565b611db260e0830185611a49565b611dc0610100830184611d2b565b9a9950505050505050505050565b7f43616e206265207369676e6564206f6e6c79206279204c657373656500000000600082015250565b6000611e04601c83611af6565b9150611e0f82611dce565b602082019050919050565b60006020820190508181036000830152611e3381611df7565b9050919050565b7f4e487b7100000000000000000000000000000000000000000000000000000000600052602260045260246000fd5b60006002820490506001821680611e8157607f821691505b602082108103611e9457611e93611e3a565b5b50919050565b60008190508160005260206000209050919050565b60006020601f8301049050919050565b600082821b905092915050565b600060088302611efc7fffffffffffffffffffffffffffffffffffffffffffffffffffffffffffffffff82611ebf565b611f068683611ebf565b95508019841693508086168417925050509392505050565b6000819050919050565b6000611f43611f3e611f398461179b565b611f1e565b61179b565b9050919050565b6000819050919050565b611f5d83611f28565b611f71611f6982611f4a565b848454611ecc565b825550505050565b600090565b611f86611f79565b611f91818484611f54565b505050565b5b81811015611fb557611faa600082611f7e565b600181019050611f97565b5050565b601f821115611ffa57611fcb81611e9a565b611fd484611eaf565b81016020851015611fe3578190505b611ff7611fef85611eaf565b830182611f96565b50505b505050565b600082821c905092915050565b600061201d60001984600802611fff565b1980831691505092915050565b6000612036838361200c565b9150826002028217905092915050565b61204f82611aeb565b67ffffffffffffffff811115612068576120676117ec565b5b6120728254611e69565b61207d828285611fb9565b600060209050601f8311600181146120b0576000841561209e578287015190505b6120a8858261202a565b865550612110565b601f1984166120be86611e9a565b60005b828110156120e6578489015182556001820191506020850194506020810190506120c1565b8683101561210357848901516120ff601f89168261200c565b8355505b6001600288020188555050505b505050505050565b7f6f6e65206f662075206973206120667261756421000000000000000000000000600082015250565b600061214e601483611af6565b915061215982612118565b602082019050919050565b6000602082019050818103600083015261217d81612141565b9050919050565b7f4f6e6c79206c616e646c6f72642063616e205465726d696e61746520636f6e7460008201527f7261637421000000000000000000000000000000000000000000000000000000602082015250565b60006121e0602583611af6565b91506121eb82612184565b604082019050919050565b6000602082019050818103600083015261220f816121d3565b9050919050565b7f43616e206265207369676e6564206f6e6c79206279204c616e646c6f72640000600082015250565b600061224c601e83611af6565b915061225782612216565b602082019050919050565b6000602082019050818103600083015261227b8161223f565b9050919050565b7f54686520436f6e74726163742073686f756c642062652063616c6c656420627960008201527f204c616e646c6f72642100000000000000000000000000000000000000000000602082015250565b60006122de602a83611af6565b91506122e982612282565b604082019050919050565b6000602082019050818103600083015261230d816122d1565b9050919050565b7f546865206164647265737365732063616e7420626520656d7074792100000000600082015250565b600061234a601c83611af6565b915061235582612314565b602082019050919050565b600060208201905081810360008301526123798161233d565b9050919050565b7f546865204c616e646c6f726420616e64206c657373656520616464726573732060008201527f63616e742062652073616d652100000000000000000000000000000000000000602082015250565b60006123dc602d83611af6565b91506123e782612380565b604082019050919050565b6000602082019050818103600083015261240b816123cf565b9050919050565b7f4e487b7100000000000000000000000000000000000000000000000000000000600052601160045260246000fd5b600061244c8261179b565b91507fffffffffffffffffffffffffffffffffffffffffffffffffffffffffffffffff820361247e5761247d612412565b5b600182019050919050565b7f5369676e2074686520436f6e7472616374206669727374210000000000000000600082015250565b60006124bf601883611af6565b91506124ca82612489565b602082019050919050565b600060208201905081810360008301526124ee816124b2565b9050919050565b7f54686520696e70757420616d6f756e74206973206e6f7420746865206465636960008201527f6465642072656e7420616d6f756e742100000000000000000000000000000000602082015250565b6000612551603083611af6565b915061255c826124f5565b604082019050919050565b6000602082019050818103600083015261258081612544565b9050919050565b7f4f6e6c79206c65737365652063616e207061792072656e742100000000000000600082015250565b60006125bd601983611af6565b91506125c882612587565b602082019050919050565b600060208201905081810360008301526125ec816125b0565b9050919050565b600081905092915050565b50565b600061260e6000836125f3565b9150612619826125fe565b600082019050919050565b600061262f82612601565b9150819050919050565b7f4661696c656420746f2073656e642072656e7400000000000000000000000000600082015250565b600061266f601383611af6565b915061267a82612639565b602082019050919050565b6000602082019050818103600083015261269e81612662565b9050919050565b60006126b08261179b565b91506126bb8361179b565b92508282019050808211156126d3576126d2612412565b5b9291505056fea264697066735822122085af11172adca2e13da833efbd4810644a8e4e2f9b0574d59ab16d1e9ce0791264736f6c63430008110033",
  "linkReferences": {},
  "deployedLinkReferences": {}
}