{
  "_format": "hh-sol-artifact-1",
  "contractName": "ShopRental",
  "sourceName": "contracts/ShopRental.sol",
  "abi": [
    {
      "anonymous": false,
      "inputs": [
        {
          "indexed": false,
          "internalType": "uint256",
          "name": "id",
          "type": "uint256"
        }
      ],
      "name": "token",
      "type": "event"
    },
    {
      "inputs": [
        {
          "internalType": "uint256",
          "name": "_index",
          "type": "uint256"
        }
      ],
      "name": "agreementTerminated",
      "outputs": [],
      "stateMutability": "nonpayable",
      "type": "function"
    },
    {
      "inputs": [
        {
          "internalType": "uint256",
          "name": "",
          "type": "uint256"
        }
      ],
      "name": "agreement_info",
      "outputs": [
        {
          "internalType": "uint256",
          "name": "agreement_id",
          "type": "uint256"
        },
        {
          "internalType": "address payable",
          "name": "landlord_address",
          "type": "address"
        },
        {
          "internalType": "address payable",
          "name": "lessee_address",
          "type": "address"
        },
        {
          "internalType": "string",
          "name": "shopAddress",
          "type": "string"
        },
        {
          "internalType": "uint256",
          "name": "term",
          "type": "uint256"
        },
        {
          "internalType": "uint256",
          "name": "rent",
          "type": "uint256"
        },
        {
          "internalType": "uint256",
          "name": "timestamp",
          "type": "uint256"
        },
        {
          "internalType": "enum ShopRental.State",
          "name": "state",
          "type": "uint8"
        }
      ],
      "stateMutability": "view",
      "type": "function"
    },
    {
      "inputs": [
        {
          "internalType": "uint256",
          "name": "_index",
          "type": "uint256"
        }
      ],
      "name": "getSigned",
      "outputs": [
        {
          "internalType": "bool",
          "name": "",
          "type": "bool"
        }
      ],
      "stateMutability": "view",
      "type": "function"
    },
    {
      "inputs": [
        {
          "internalType": "uint256",
          "name": "_index",
          "type": "uint256"
        }
      ],
      "name": "getTerminated",
      "outputs": [
        {
          "internalType": "bool",
          "name": "",
          "type": "bool"
        }
      ],
      "stateMutability": "view",
      "type": "function"
    },
    {
      "inputs": [
        {
          "internalType": "uint256",
          "name": "",
          "type": "uint256"
        }
      ],
      "name": "landlord_info",
      "outputs": [
        {
          "internalType": "uint256",
          "name": "agreement_id",
          "type": "uint256"
        },
        {
          "internalType": "address payable",
          "name": "landlord_address",
          "type": "address"
        },
        {
          "internalType": "uint256",
          "name": "aadhar",
          "type": "uint256"
        },
        {
          "internalType": "string",
          "name": "name",
          "type": "string"
        },
        {
          "internalType": "string",
          "name": "fathers_name",
          "type": "string"
        },
        {
          "internalType": "string",
          "name": "addr",
          "type": "string"
        },
        {
          "internalType": "bool",
          "name": "signed",
          "type": "bool"
        }
      ],
      "stateMutability": "view",
      "type": "function"
    },
    {
      "inputs": [
        {
          "internalType": "uint256",
          "name": "",
          "type": "uint256"
        }
      ],
      "name": "lessee_info",
      "outputs": [
        {
          "internalType": "uint256",
          "name": "agreement_id",
          "type": "uint256"
        },
        {
          "internalType": "address payable",
          "name": "lessee_address",
          "type": "address"
        },
        {
          "internalType": "uint256",
          "name": "aadhar",
          "type": "uint256"
        },
        {
          "internalType": "string",
          "name": "name",
          "type": "string"
        },
        {
          "internalType": "string",
          "name": "fathers_name",
          "type": "string"
        },
        {
          "internalType": "string",
          "name": "addr",
          "type": "string"
        },
        {
          "internalType": "bool",
          "name": "signed",
          "type": "bool"
        }
      ],
      "stateMutability": "view",
      "type": "function"
    },
    {
      "inputs": [
        {
          "internalType": "address payable",
          "name": "_landlord",
          "type": "address"
        },
        {
          "internalType": "address payable",
          "name": "_lessee",
          "type": "address"
        },
        {
          "internalType": "uint256",
          "name": "_rent",
          "type": "uint256"
        },
        {
          "internalType": "string",
          "name": "_shopAddress",
          "type": "string"
        },
        {
          "internalType": "uint256",
          "name": "_term",
          "type": "uint256"
        }
      ],
      "name": "setAgreement",
      "outputs": [],
      "stateMutability": "nonpayable",
      "type": "function"
    },
    {
      "inputs": [
        {
          "internalType": "uint256",
          "name": "_index",
          "type": "uint256"
        },
        {
          "internalType": "uint256",
          "name": "_aadhar_no",
          "type": "uint256"
        },
        {
          "internalType": "string",
          "name": "_name",
          "type": "string"
        },
        {
          "internalType": "string",
          "name": "_fathers_name",
          "type": "string"
        },
        {
          "internalType": "string",
          "name": "_addr",
          "type": "string"
        }
      ],
      "name": "signLandlord",
      "outputs": [],
      "stateMutability": "nonpayable",
      "type": "function"
    },
    {
      "inputs": [
        {
          "internalType": "uint256",
          "name": "_index",
          "type": "uint256"
        },
        {
          "internalType": "uint256",
          "name": "_aadhar_no",
          "type": "uint256"
        },
        {
          "internalType": "string",
          "name": "_name",
          "type": "string"
        },
        {
          "internalType": "string",
          "name": "_fathers_name",
          "type": "string"
        },
        {
          "internalType": "string",
          "name": "_addr",
          "type": "string"
        }
      ],
      "name": "signLessee",
      "outputs": [],
      "stateMutability": "nonpayable",
      "type": "function"
    }
  ],
  "bytecode": "0x6080604052600060025534801561001557600080fd5b50611f87806100256000396000f3fe608060405234801561001057600080fd5b50600436106100935760003560e01c806387ee13731161006657806387ee1373146101305780638e039bc0146101665780639593a91014610182578063e540400f146101b8578063f1386753146101ef57610093565b8063090dfbda1461009857806326d11a21146100b45780634f5e4428146100e45780637684c46014610100575b600080fd5b6100b260048036038101906100ad91906114c9565b61020b565b005b6100ce60048036038101906100c99190611598565b6104ed565b6040516100db91906115e0565b60405180910390f35b6100fe60048036038101906100f99190611598565b610565565b005b61011a60048036038101906101159190611598565b610725565b60405161012791906115e0565b60405180910390f35b61014a60048036038101906101459190611598565b610788565b60405161015d97969594939291906116ca565b60405180910390f35b610180600480360381019061017b91906114c9565b61098f565b005b61019c60048036038101906101979190611598565b610c71565b6040516101af97969594939291906116ca565b60405180910390f35b6101d260048036038101906101cd9190611598565b610e78565b6040516101e69897969594939291906117c5565b60405180910390f35b61020960048036038101906102049190611876565b610f95565b005b600073ffffffffffffffffffffffffffffffffffffffff163373ffffffffffffffffffffffffffffffffffffffff160361024457600080fd5b6003600086815260200190815260200160002060020160009054906101000a900473ffffffffffffffffffffffffffffffffffffffff1673ffffffffffffffffffffffffffffffffffffffff163373ffffffffffffffffffffffffffffffffffffffff16146102e8576040517f08c379a00000000000000000000000000000000000000000000000000000000081526004016102df90611959565b60405180910390fd5b60006003600087815260200190815260200160002060020160009054906101000a900473ffffffffffffffffffffffffffffffffffffffff1690506040518060e001604052808781526020018273ffffffffffffffffffffffffffffffffffffffff16815260200186815260200185815260200184815260200183815260200160011515815250600560008881526020019081526020016000206000820151816000015560208201518160010160006101000a81548173ffffffffffffffffffffffffffffffffffffffff021916908373ffffffffffffffffffffffffffffffffffffffff1602179055506040820151816002015560608201518160030190816103f29190611b85565b5060808201518160040190816104089190611b85565b5060a082015181600501908161041e9190611b85565b5060c08201518160060160006101000a81548160ff021916908315150217905550905050600115156004600088815260200190815260200160002060060160009054906101000a900460ff1615151480156104a05750600115156005600088815260200190815260200160002060060160009054906101000a900460ff161515145b156104e55760016003600088815260200190815260200160002060070160006101000a81548160ff021916908360028111156104df576104de61174e565b5b02179055505b505050505050565b6000600115156004600084815260200190815260200160002060060160009054906101000a900460ff16151514801561054d5750600115156005600084815260200190815260200160002060060160009054906101000a900460ff161515145b1561055b5760019050610560565b600090505b919050565b6003600082815260200190815260200160002060010160009054906101000a900473ffffffffffffffffffffffffffffffffffffffff1673ffffffffffffffffffffffffffffffffffffffff163373ffffffffffffffffffffffffffffffffffffffff16148061063657506003600082815260200190815260200160002060020160009054906101000a900473ffffffffffffffffffffffffffffffffffffffff1673ffffffffffffffffffffffffffffffffffffffff163373ffffffffffffffffffffffffffffffffffffffff16145b610675576040517f08c379a000000000000000000000000000000000000000000000000000000000815260040161066c90611ca3565b60405180910390fd5b6003600082815260200190815260200160002060010160009054906101000a900473ffffffffffffffffffffffffffffffffffffffff1673ffffffffffffffffffffffffffffffffffffffff163373ffffffffffffffffffffffffffffffffffffffff16146106e357600080fd5b60026003600083815260200190815260200160002060070160006101000a81548160ff0219169083600281111561071d5761071c61174e565b5b021790555050565b600060028081111561073a5761073961174e565b5b6003600084815260200190815260200160002060070160009054906101000a900460ff1660028111156107705761076f61174e565b5b0361077e5760019050610783565b600090505b919050565b60056020528060005260406000206000915090508060000154908060010160009054906101000a900473ffffffffffffffffffffffffffffffffffffffff16908060020154908060030180546107dd906119a8565b80601f0160208091040260200160405190810160405280929190818152602001828054610809906119a8565b80156108565780601f1061082b57610100808354040283529160200191610856565b820191906000526020600020905b81548152906001019060200180831161083957829003601f168201915b50505050509080600401805461086b906119a8565b80601f0160208091040260200160405190810160405280929190818152602001828054610897906119a8565b80156108e45780601f106108b9576101008083540402835291602001916108e4565b820191906000526020600020905b8154815290600101906020018083116108c757829003601f168201915b5050505050908060050180546108f9906119a8565b80601f0160208091040260200160405190810160405280929190818152602001828054610925906119a8565b80156109725780601f1061094757610100808354040283529160200191610972565b820191906000526020600020905b81548152906001019060200180831161095557829003601f168201915b5050505050908060060160009054906101000a900460ff16905087565b600073ffffffffffffffffffffffffffffffffffffffff163373ffffffffffffffffffffffffffffffffffffffff16036109c857600080fd5b6003600086815260200190815260200160002060010160009054906101000a900473ffffffffffffffffffffffffffffffffffffffff1673ffffffffffffffffffffffffffffffffffffffff163373ffffffffffffffffffffffffffffffffffffffff1614610a6c576040517f08c379a0000000000000000000000000000000000000000000000000000000008152600401610a6390611d0f565b60405180910390fd5b60006003600087815260200190815260200160002060010160009054906101000a900473ffffffffffffffffffffffffffffffffffffffff1690506040518060e001604052808781526020018273ffffffffffffffffffffffffffffffffffffffff16815260200186815260200185815260200184815260200183815260200160011515815250600460008881526020019081526020016000206000820151816000015560208201518160010160006101000a81548173ffffffffffffffffffffffffffffffffffffffff021916908373ffffffffffffffffffffffffffffffffffffffff160217905550604082015181600201556060820151816003019081610b769190611b85565b506080820151816004019081610b8c9190611b85565b5060a0820151816005019081610ba29190611b85565b5060c08201518160060160006101000a81548160ff021916908315150217905550905050600115156004600088815260200190815260200160002060060160009054906101000a900460ff161515148015610c245750600115156005600088815260200190815260200160002060060160009054906101000a900460ff161515145b15610c695760016003600088815260200190815260200160002060070160006101000a81548160ff02191690836002811115610c6357610c6261174e565b5b02179055505b505050505050565b60046020528060005260406000206000915090508060000154908060010160009054906101000a900473ffffffffffffffffffffffffffffffffffffffff1690806002015490806003018054610cc6906119a8565b80601f0160208091040260200160405190810160405280929190818152602001828054610cf2906119a8565b8015610d3f5780601f10610d1457610100808354040283529160200191610d3f565b820191906000526020600020905b815481529060010190602001808311610d2257829003601f168201915b505050505090806004018054610d54906119a8565b80601f0160208091040260200160405190810160405280929190818152602001828054610d80906119a8565b8015610dcd5780601f10610da257610100808354040283529160200191610dcd565b820191906000526020600020905b815481529060010190602001808311610db057829003601f168201915b505050505090806005018054610de2906119a8565b80601f0160208091040260200160405190810160405280929190818152602001828054610e0e906119a8565b8015610e5b5780601f10610e3057610100808354040283529160200191610e5b565b820191906000526020600020905b815481529060010190602001808311610e3e57829003601f168201915b5050505050908060060160009054906101000a900460ff16905087565b60036020528060005260406000206000915090508060000154908060010160009054906101000a900473ffffffffffffffffffffffffffffffffffffffff16908060020160009054906101000a900473ffffffffffffffffffffffffffffffffffffffff1690806003018054610eed906119a8565b80601f0160208091040260200160405190810160405280929190818152602001828054610f19906119a8565b8015610f665780601f10610f3b57610100808354040283529160200191610f66565b820191906000526020600020905b815481529060010190602001808311610f4957829003601f168201915b5050505050908060040154908060050154908060060154908060070160009054906101000a900460ff16905088565b600073ffffffffffffffffffffffffffffffffffffffff163373ffffffffffffffffffffffffffffffffffffffff1603610fce57600080fd5b8473ffffffffffffffffffffffffffffffffffffffff163373ffffffffffffffffffffffffffffffffffffffff161461103c576040517f08c379a000000000000000000000000000000000000000000000000000000000815260040161103390611da1565b60405180910390fd5b600073ffffffffffffffffffffffffffffffffffffffff168573ffffffffffffffffffffffffffffffffffffffff161415806110a55750600073ffffffffffffffffffffffffffffffffffffffff168473ffffffffffffffffffffffffffffffffffffffff1614155b6110e4576040517f08c379a00000000000000000000000000000000000000000000000000000000081526004016110db90611e0d565b60405180910390fd5b8373ffffffffffffffffffffffffffffffffffffffff168573ffffffffffffffffffffffffffffffffffffffff1603611152576040517f08c379a000000000000000000000000000000000000000000000000000000000815260040161114990611e9f565b60405180910390fd5b6002600081548092919061116590611eee565b919050555060405180610100016040528060025481526020018673ffffffffffffffffffffffffffffffffffffffff1681526020018573ffffffffffffffffffffffffffffffffffffffff168152602001838152602001828152602001848152602001428152602001600060028111156111e2576111e161174e565b5b8152506003600060025481526020019081526020016000206000820151816000015560208201518160010160006101000a81548173ffffffffffffffffffffffffffffffffffffffff021916908373ffffffffffffffffffffffffffffffffffffffff16021790555060408201518160020160006101000a81548173ffffffffffffffffffffffffffffffffffffffff021916908373ffffffffffffffffffffffffffffffffffffffff16021790555060608201518160030190816112a79190611b85565b506080820151816004015560a0820151816005015560c0820151816006015560e08201518160070160006101000a81548160ff021916908360028111156112f1576112f061174e565b5b02179055509050507f044215c67d3b8d56e3fe696cb171f256405bb8bacb42fb78bfb2aa7df629eb3660025460405161132a9190611f36565b60405180910390a15050505050565b6000604051905090565b600080fd5b600080fd5b6000819050919050565b6113608161134d565b811461136b57600080fd5b50565b60008135905061137d81611357565b92915050565b600080fd5b600080fd5b6000601f19601f8301169050919050565b7f4e487b7100000000000000000000000000000000000000000000000000000000600052604160045260246000fd5b6113d68261138d565b810181811067ffffffffffffffff821117156113f5576113f461139e565b5b80604052505050565b6000611408611339565b905061141482826113cd565b919050565b600067ffffffffffffffff8211156114345761143361139e565b5b61143d8261138d565b9050602081019050919050565b82818337600083830152505050565b600061146c61146784611419565b6113fe565b90508281526020810184848401111561148857611487611388565b5b61149384828561144a565b509392505050565b600082601f8301126114b0576114af611383565b5b81356114c0848260208601611459565b91505092915050565b600080600080600060a086880312156114e5576114e4611343565b5b60006114f38882890161136e565b95505060206115048882890161136e565b945050604086013567ffffffffffffffff81111561152557611524611348565b5b6115318882890161149b565b935050606086013567ffffffffffffffff81111561155257611551611348565b5b61155e8882890161149b565b925050608086013567ffffffffffffffff81111561157f5761157e611348565b5b61158b8882890161149b565b9150509295509295909350565b6000602082840312156115ae576115ad611343565b5b60006115bc8482850161136e565b91505092915050565b60008115159050919050565b6115da816115c5565b82525050565b60006020820190506115f560008301846115d1565b92915050565b6116048161134d565b82525050565b600073ffffffffffffffffffffffffffffffffffffffff82169050919050565b60006116358261160a565b9050919050565b6116458161162a565b82525050565b600081519050919050565b600082825260208201905092915050565b60005b8381101561168557808201518184015260208101905061166a565b60008484015250505050565b600061169c8261164b565b6116a68185611656565b93506116b6818560208601611667565b6116bf8161138d565b840191505092915050565b600060e0820190506116df600083018a6115fb565b6116ec602083018961163c565b6116f960408301886115fb565b818103606083015261170b8187611691565b9050818103608083015261171f8186611691565b905081810360a08301526117338185611691565b905061174260c08301846115d1565b98975050505050505050565b7f4e487b7100000000000000000000000000000000000000000000000000000000600052602160045260246000fd5b6003811061178e5761178d61174e565b5b50565b600081905061179f8261177d565b919050565b60006117af82611791565b9050919050565b6117bf816117a4565b82525050565b6000610100820190506117db600083018b6115fb565b6117e8602083018a61163c565b6117f5604083018961163c565b81810360608301526118078188611691565b905061181660808301876115fb565b61182360a08301866115fb565b61183060c08301856115fb565b61183d60e08301846117b6565b9998505050505050505050565b6118538161162a565b811461185e57600080fd5b50565b6000813590506118708161184a565b92915050565b600080600080600060a0868803121561189257611891611343565b5b60006118a088828901611861565b95505060206118b188828901611861565b94505060406118c28882890161136e565b935050606086013567ffffffffffffffff8111156118e3576118e2611348565b5b6118ef8882890161149b565b92505060806119008882890161136e565b9150509295509295909350565b7f43616e206265207369676e6564206f6e6c79206279204c657373656500000000600082015250565b6000611943601c83611656565b915061194e8261190d565b602082019050919050565b6000602082019050818103600083015261197281611936565b9050919050565b7f4e487b7100000000000000000000000000000000000000000000000000000000600052602260045260246000fd5b600060028204905060018216806119c057607f821691505b6020821081036119d3576119d2611979565b5b50919050565b60008190508160005260206000209050919050565b60006020601f8301049050919050565b600082821b905092915050565b600060088302611a3b7fffffffffffffffffffffffffffffffffffffffffffffffffffffffffffffffff826119fe565b611a4586836119fe565b95508019841693508086168417925050509392505050565b6000819050919050565b6000611a82611a7d611a788461134d565b611a5d565b61134d565b9050919050565b6000819050919050565b611a9c83611a67565b611ab0611aa882611a89565b848454611a0b565b825550505050565b600090565b611ac5611ab8565b611ad0818484611a93565b505050565b5b81811015611af457611ae9600082611abd565b600181019050611ad6565b5050565b601f821115611b3957611b0a816119d9565b611b13846119ee565b81016020851015611b22578190505b611b36611b2e856119ee565b830182611ad5565b50505b505050565b600082821c905092915050565b6000611b5c60001984600802611b3e565b1980831691505092915050565b6000611b758383611b4b565b9150826002028217905092915050565b611b8e8261164b565b67ffffffffffffffff811115611ba757611ba661139e565b5b611bb182546119a8565b611bbc828285611af8565b600060209050601f831160018114611bef5760008415611bdd578287015190505b611be78582611b69565b865550611c4f565b601f198416611bfd866119d9565b60005b82811015611c2557848901518255600182019150602085019450602081019050611c00565b86831015611c425784890151611c3e601f891682611b4b565b8355505b6001600288020188555050505b505050505050565b7f6f6e65206f662075206973206120667261756421000000000000000000000000600082015250565b6000611c8d601483611656565b9150611c9882611c57565b602082019050919050565b60006020820190508181036000830152611cbc81611c80565b9050919050565b7f43616e206265207369676e6564206f6e6c79206279204c616e646c6f72640000600082015250565b6000611cf9601e83611656565b9150611d0482611cc3565b602082019050919050565b60006020820190508181036000830152611d2881611cec565b9050919050565b7f54686520436f6e74726163742073686f756c642062652063616c6c656420627960008201527f204c616e646c6f72642100000000000000000000000000000000000000000000602082015250565b6000611d8b602a83611656565b9150611d9682611d2f565b604082019050919050565b60006020820190508181036000830152611dba81611d7e565b9050919050565b7f546865206164647265737365732063616e7420626520656d7074792100000000600082015250565b6000611df7601c83611656565b9150611e0282611dc1565b602082019050919050565b60006020820190508181036000830152611e2681611dea565b9050919050565b7f546865204c616e646c6f726420616e64206c657373656520616464726573732060008201527f63616e742062652073616d652100000000000000000000000000000000000000602082015250565b6000611e89602d83611656565b9150611e9482611e2d565b604082019050919050565b60006020820190508181036000830152611eb881611e7c565b9050919050565b7f4e487b7100000000000000000000000000000000000000000000000000000000600052601160045260246000fd5b6000611ef98261134d565b91507fffffffffffffffffffffffffffffffffffffffffffffffffffffffffffffffff8203611f2b57611f2a611ebf565b5b600182019050919050565b6000602082019050611f4b60008301846115fb565b9291505056fea26469706673582212200846da6fd43186e690ba3d63ad00764baceed3d36001e23efb4c54408964187e64736f6c63430008110033",
  "linkReferences": {},
  "deployedLinkReferences": {}
}