{
  "_format": "hh-sol-artifact-1",
  "contractName": "Tenders",
  "sourceName": "contracts/Tenders.sol",
  "abi": [
    {
      "anonymous": false,
      "inputs": [
        {
          "indexed": true,
          "internalType": "uint256",
          "name": "token",
          "type": "uint256"
        }
      ],
      "name": "ApplicationSubmitted",
      "type": "event"
    },
    {
      "anonymous": false,
      "inputs": [
        {
          "indexed": false,
          "internalType": "uint256",
          "name": "applicant",
          "type": "uint256"
        }
      ],
      "name": "winningBid",
      "type": "event"
    },
    {
      "inputs": [
        {
          "internalType": "uint256",
          "name": "_tenderId",
          "type": "uint256"
        },
        {
          "internalType": "uint256",
          "name": "_bidderId",
          "type": "uint256"
        },
        {
          "internalType": "address",
          "name": "_wonBidder",
          "type": "address"
        }
      ],
      "name": "assignTender",
      "outputs": [],
      "stateMutability": "nonpayable",
      "type": "function"
    },
    {
      "inputs": [
        {
          "internalType": "uint256",
          "name": "_tenderId",
          "type": "uint256"
        },
        {
          "internalType": "address",
          "name": "_applicant",
          "type": "address"
        },
        {
          "internalType": "string",
          "name": "_companyLicenseName",
          "type": "string"
        },
        {
          "internalType": "string",
          "name": "_companyRegistrationNumber",
          "type": "string"
        },
        {
          "internalType": "string",
          "name": "_registeredAddress",
          "type": "string"
        },
        {
          "internalType": "uint256",
          "name": "_pin",
          "type": "uint256"
        },
        {
          "internalType": "string",
          "name": "_legalStatus",
          "type": "string"
        },
        {
          "internalType": "uint256",
          "name": "_proposedBudget",
          "type": "uint256"
        },
        {
          "internalType": "string",
          "name": "_scopeandapproach",
          "type": "string"
        },
        {
          "internalType": "string",
          "name": "_stringprevprojandqualification",
          "type": "string"
        }
      ],
      "name": "bidderData",
      "outputs": [],
      "stateMutability": "nonpayable",
      "type": "function"
    },
    {
      "inputs": [
        {
          "internalType": "uint256",
          "name": "",
          "type": "uint256"
        },
        {
          "internalType": "uint256",
          "name": "",
          "type": "uint256"
        }
      ],
      "name": "bidderDetails",
      "outputs": [
        {
          "internalType": "uint256",
          "name": "tenderId",
          "type": "uint256"
        },
        {
          "internalType": "uint256",
          "name": "bidderId",
          "type": "uint256"
        },
        {
          "internalType": "address",
          "name": "applicant",
          "type": "address"
        },
        {
          "internalType": "string",
          "name": "companyLicenseName",
          "type": "string"
        },
        {
          "internalType": "string",
          "name": "companyRegistrationNumber",
          "type": "string"
        },
        {
          "internalType": "string",
          "name": "registeredAddress",
          "type": "string"
        },
        {
          "internalType": "uint256",
          "name": "pin",
          "type": "uint256"
        },
        {
          "internalType": "string",
          "name": "legalStatus",
          "type": "string"
        },
        {
          "internalType": "uint256",
          "name": "proposedBudget",
          "type": "uint256"
        },
        {
          "internalType": "string",
          "name": "scopeandapproach",
          "type": "string"
        },
        {
          "internalType": "string",
          "name": "prevprojandqualification",
          "type": "string"
        },
        {
          "internalType": "uint256",
          "name": "wonTenderId",
          "type": "uint256"
        }
      ],
      "stateMutability": "view",
      "type": "function"
    },
    {
      "inputs": [
        {
          "internalType": "uint256",
          "name": "_tenderId",
          "type": "uint256"
        }
      ],
      "name": "closeTender",
      "outputs": [],
      "stateMutability": "nonpayable",
      "type": "function"
    },
    {
      "inputs": [
        {
          "internalType": "uint256",
          "name": "_tenderId",
          "type": "uint256"
        }
      ],
      "name": "getWinningBid",
      "outputs": [
        {
          "internalType": "uint256",
          "name": "",
          "type": "uint256"
        }
      ],
      "stateMutability": "nonpayable",
      "type": "function"
    },
    {
      "inputs": [
        {
          "internalType": "uint256",
          "name": "",
          "type": "uint256"
        }
      ],
      "name": "tenderDetails",
      "outputs": [
        {
          "internalType": "uint256",
          "name": "tenderId",
          "type": "uint256"
        },
        {
          "internalType": "string",
          "name": "organizationChain",
          "type": "string"
        },
        {
          "internalType": "string",
          "name": "tenderTitle",
          "type": "string"
        },
        {
          "internalType": "string",
          "name": "workDescription",
          "type": "string"
        },
        {
          "internalType": "string",
          "name": "tenderCategory",
          "type": "string"
        },
        {
          "internalType": "string",
          "name": "preQualification",
          "type": "string"
        },
        {
          "internalType": "string",
          "name": "location",
          "type": "string"
        },
        {
          "internalType": "uint256",
          "name": "tenderBudget",
          "type": "uint256"
        },
        {
          "internalType": "uint256",
          "name": "bidValidity",
          "type": "uint256"
        },
        {
          "internalType": "uint256",
          "name": "periodOfWork",
          "type": "uint256"
        },
        {
          "internalType": "bool",
          "name": "tendorClosed",
          "type": "bool"
        },
        {
          "internalType": "address",
          "name": "wonBidderId",
          "type": "address"
        }
      ],
      "stateMutability": "view",
      "type": "function"
    },
    {
      "inputs": [
        {
          "internalType": "string",
          "name": "_organizationChain",
          "type": "string"
        },
        {
          "internalType": "string",
          "name": "_tenderTitle",
          "type": "string"
        },
        {
          "internalType": "string",
          "name": "_workDescription",
          "type": "string"
        },
        {
          "internalType": "string",
          "name": "_tenderCategory",
          "type": "string"
        },
        {
          "internalType": "string",
          "name": "_preQualification",
          "type": "string"
        },
        {
          "internalType": "string",
          "name": "_location",
          "type": "string"
        },
        {
          "internalType": "uint256",
          "name": "_tenderBudget",
          "type": "uint256"
        },
        {
          "internalType": "uint256",
          "name": "_bidValidity",
          "type": "uint256"
        },
        {
          "internalType": "uint256",
          "name": "_periodOfWork",
          "type": "uint256"
        }
      ],
      "name": "tendorData",
      "outputs": [
        {
          "internalType": "uint256",
          "name": "",
          "type": "uint256"
        }
      ],
      "stateMutability": "nonpayable",
      "type": "function"
    },
    {
      "inputs": [
        {
          "internalType": "uint256",
          "name": "_tenderid",
          "type": "uint256"
        }
      ],
      "name": "totalBidders",
      "outputs": [
        {
          "internalType": "uint256",
          "name": "",
          "type": "uint256"
        }
      ],
      "stateMutability": "view",
      "type": "function"
    },
    {
      "inputs": [],
      "name": "totalTenders",
      "outputs": [
        {
          "internalType": "uint256",
          "name": "",
          "type": "uint256"
        }
      ],
      "stateMutability": "view",
      "type": "function"
    }
  ],
  "bytecode": "0x6080604052600080556000600155600060025534801561001e57600080fd5b506123a08061002e6000396000f3fe608060405234801561001057600080fd5b50600436106100925760003560e01c80636891939d116100665780636891939d1461011d5780639626c9241461014d578063a0d1471314610188578063ae6862f6146101c3578063f0567d8c146101f357610092565b8062cda3da1461009757806314b6c362146100b357806346154297146100e357806351a5d399146100ff575b600080fd5b6100b160048036038101906100ac9190611442565b61020f565b005b6100cd60048036038101906100c89190611442565b6102ab565b6040516100da919061147e565b60405180910390f35b6100fd60048036038101906100f891906114f7565b6102cb565b005b61010761049a565b604051610114919061147e565b60405180910390f35b61013760048036038101906101329190611442565b6104a0565b604051610144919061147e565b60405180910390f35b6101676004803603810190610162919061154a565b610692565b60405161017f9c9b9a99989796959493929190611629565b60405180910390f35b6101a2600480360381019061019d9190611442565b610a5f565b6040516101ba9c9b9a99989796959493929190611728565b60405180910390f35b6101dd60048036038101906101d89190611941565b610e1c565b6040516101ea919061147e565b60405180910390f35b61020d60048036038101906102089190611ab3565b61102b565b005b6000151560036000838152602001908152602001600020600a0160009054906101000a900460ff16151514610279576040517f08c379a000000000000000000000000000000000000000000000000000000000815260040161027090611c86565b60405180910390fd5b600160036000838152602001908152602001600020600a0160006101000a81548160ff02191690831515021790555050565b600060046000838152602001908152602001600020805490509050919050565b6001151560036000858152602001908152602001600020600a0160009054906101000a900460ff16151514610335576040517f08c379a000000000000000000000000000000000000000000000000000000000815260040161032c90611cf2565b60405180910390fd5b600060046000858152602001908152602001600020805490501161038e576040517f08c379a000000000000000000000000000000000000000000000000000000000815260040161038590611d5e565b60405180910390fd5b60005b600460008581526020019081526020016000208054905081101561049457826004600086815260200190815260200160002082815481106103d5576103d4611d7e565b5b90600052602060002090600c02016001015403610481578360046000868152602001908152602001600020828154811061041257610411611d7e565b5b90600052602060002090600c0201600b01819055508160036000868152602001908152602001600020600a0160016101000a81548173ffffffffffffffffffffffffffffffffffffffff021916908373ffffffffffffffffffffffffffffffffffffffff160217905550610494565b808061048c90611ddc565b915050610391565b50505050565b60005481565b60006001151560036000848152602001908152602001600020600a0160009054906101000a900460ff1615151461050c576040517f08c379a000000000000000000000000000000000000000000000000000000000815260040161050390611cf2565b60405180910390fd5b6000600460008481526020019081526020016000208054905011610565576040517f08c379a000000000000000000000000000000000000000000000000000000000815260040161055c90611d5e565b60405180910390fd5b60008080600090505b600460008681526020019081526020016000208054905081101561065057826004600087815260200190815260200160002082815481106105b2576105b1611d7e565b5b90600052602060002090600c020160080154111561063d576004600086815260200190815260200160002081815481106105ef576105ee611d7e565b5b90600052602060002090600c020160080154925060046000868152602001908152602001600020818154811061062857610627611d7e565b5b90600052602060002090600c02016001015491505b808061064890611ddc565b91505061056e565b507fd4ac9b8c86dc1531e205a122ae9f99352ae6596a0e42d446e551deebd8506d3681604051610680919061147e565b60405180910390a18092505050919050565b600460205281600052604060002081815481106106ae57600080fd5b90600052602060002090600c0201600091509150508060000154908060010154908060020160009054906101000a900473ffffffffffffffffffffffffffffffffffffffff169080600301805461070490611e53565b80601f016020809104026020016040519081016040528092919081815260200182805461073090611e53565b801561077d5780601f106107525761010080835404028352916020019161077d565b820191906000526020600020905b81548152906001019060200180831161076057829003601f168201915b50505050509080600401805461079290611e53565b80601f01602080910402602001604051908101604052809291908181526020018280546107be90611e53565b801561080b5780601f106107e05761010080835404028352916020019161080b565b820191906000526020600020905b8154815290600101906020018083116107ee57829003601f168201915b50505050509080600501805461082090611e53565b80601f016020809104026020016040519081016040528092919081815260200182805461084c90611e53565b80156108995780601f1061086e57610100808354040283529160200191610899565b820191906000526020600020905b81548152906001019060200180831161087c57829003601f168201915b5050505050908060060154908060070180546108b490611e53565b80601f01602080910402602001604051908101604052809291908181526020018280546108e090611e53565b801561092d5780601f106109025761010080835404028352916020019161092d565b820191906000526020600020905b81548152906001019060200180831161091057829003601f168201915b50505050509080600801549080600901805461094890611e53565b80601f016020809104026020016040519081016040528092919081815260200182805461097490611e53565b80156109c15780601f10610996576101008083540402835291602001916109c1565b820191906000526020600020905b8154815290600101906020018083116109a457829003601f168201915b50505050509080600a0180546109d690611e53565b80601f0160208091040260200160405190810160405280929190818152602001828054610a0290611e53565b8015610a4f5780601f10610a2457610100808354040283529160200191610a4f565b820191906000526020600020905b815481529060010190602001808311610a3257829003601f168201915b50505050509080600b015490508c565b6003602052806000526040600020600091509050806000015490806001018054610a8890611e53565b80601f0160208091040260200160405190810160405280929190818152602001828054610ab490611e53565b8015610b015780601f10610ad657610100808354040283529160200191610b01565b820191906000526020600020905b815481529060010190602001808311610ae457829003601f168201915b505050505090806002018054610b1690611e53565b80601f0160208091040260200160405190810160405280929190818152602001828054610b4290611e53565b8015610b8f5780601f10610b6457610100808354040283529160200191610b8f565b820191906000526020600020905b815481529060010190602001808311610b7257829003601f168201915b505050505090806003018054610ba490611e53565b80601f0160208091040260200160405190810160405280929190818152602001828054610bd090611e53565b8015610c1d5780601f10610bf257610100808354040283529160200191610c1d565b820191906000526020600020905b815481529060010190602001808311610c0057829003601f168201915b505050505090806004018054610c3290611e53565b80601f0160208091040260200160405190810160405280929190818152602001828054610c5e90611e53565b8015610cab5780601f10610c8057610100808354040283529160200191610cab565b820191906000526020600020905b815481529060010190602001808311610c8e57829003601f168201915b505050505090806005018054610cc090611e53565b80601f0160208091040260200160405190810160405280929190818152602001828054610cec90611e53565b8015610d395780601f10610d0e57610100808354040283529160200191610d39565b820191906000526020600020905b815481529060010190602001808311610d1c57829003601f168201915b505050505090806006018054610d4e90611e53565b80601f0160208091040260200160405190810160405280929190818152602001828054610d7a90611e53565b8015610dc75780601f10610d9c57610100808354040283529160200191610dc7565b820191906000526020600020905b815481529060010190602001808311610daa57829003601f168201915b50505050509080600701549080600801549080600901549080600a0160009054906101000a900460ff169080600a0160019054906101000a900473ffffffffffffffffffffffffffffffffffffffff1690508c565b600060016000815480929190610e3190611ddc565b919050555060405180610180016040528060015481526020018b81526020018a8152602001898152602001888152602001878152602001868152602001858152602001848152602001838152602001600015158152602001600073ffffffffffffffffffffffffffffffffffffffff16815250600360006001548152602001908152602001600020600082015181600001556020820151816001019081610ed89190612030565b506040820151816002019081610eee9190612030565b506060820151816003019081610f049190612030565b506080820151816004019081610f1a9190612030565b5060a0820151816005019081610f309190612030565b5060c0820151816006019081610f469190612030565b5060e082015181600701556101008201518160080155610120820151816009015561014082015181600a0160006101000a81548160ff02191690831515021790555061016082015181600a0160016101000a81548173ffffffffffffffffffffffffffffffffffffffff021916908373ffffffffffffffffffffffffffffffffffffffff160217905550905050600080815480929190610fe590611ddc565b91905055506001547f4b6126472f7a5c1a21fe858797a6bb6ed361c62b74d480965163d30d68576d4f60405160405180910390a260015490509998505050505050505050565b600073ffffffffffffffffffffffffffffffffffffffff163373ffffffffffffffffffffffffffffffffffffffff160361109a576040517f08c379a00000000000000000000000000000000000000000000000000000000081526004016110919061214e565b60405180910390fd5b8873ffffffffffffffffffffffffffffffffffffffff163373ffffffffffffffffffffffffffffffffffffffff1614611108576040517f08c379a00000000000000000000000000000000000000000000000000000000081526004016110ff906121e0565b60405180910390fd5b600073ffffffffffffffffffffffffffffffffffffffff168973ffffffffffffffffffffffffffffffffffffffff1603611177576040517f08c379a000000000000000000000000000000000000000000000000000000000815260040161116e90612272565b60405180910390fd5b60008a036111ba576040517f08c379a00000000000000000000000000000000000000000000000000000000081526004016111b1906122de565b60405180910390fd5b60001515600360008c8152602001908152602001600020600a0160009054906101000a900460ff16151514611224576040517f08c379a000000000000000000000000000000000000000000000000000000000815260040161121b9061234a565b60405180910390fd5b6002600081548092919061123790611ddc565b919050555060006040518061018001604052808c815260200160025481526020018b73ffffffffffffffffffffffffffffffffffffffff1681526020018a815260200189815260200188815260200187815260200186815260200185815260200184815260200183815260200160008152509050600460008c81526020019081526020016000208190806001815401808255809150506001900390600052602060002090600c0201600090919091909150600082015181600001556020820151816001015560408201518160020160006101000a81548173ffffffffffffffffffffffffffffffffffffffff021916908373ffffffffffffffffffffffffffffffffffffffff16021790555060608201518160030190816113589190612030565b50608082015181600401908161136e9190612030565b5060a08201518160050190816113849190612030565b5060c0820151816006015560e08201518160070190816113a49190612030565b5061010082015181600801556101208201518160090190816113c69190612030565b5061014082015181600a0190816113dd9190612030565b5061016082015181600b015550505050505050505050505050565b6000604051905090565b600080fd5b600080fd5b6000819050919050565b61141f8161140c565b811461142a57600080fd5b50565b60008135905061143c81611416565b92915050565b60006020828403121561145857611457611402565b5b60006114668482850161142d565b91505092915050565b6114788161140c565b82525050565b6000602082019050611493600083018461146f565b92915050565b600073ffffffffffffffffffffffffffffffffffffffff82169050919050565b60006114c482611499565b9050919050565b6114d4816114b9565b81146114df57600080fd5b50565b6000813590506114f1816114cb565b92915050565b6000806000606084860312156115105761150f611402565b5b600061151e8682870161142d565b935050602061152f8682870161142d565b9250506040611540868287016114e2565b9150509250925092565b6000806040838503121561156157611560611402565b5b600061156f8582860161142d565b92505060206115808582860161142d565b9150509250929050565b611593816114b9565b82525050565b600081519050919050565b600082825260208201905092915050565b60005b838110156115d35780820151818401526020810190506115b8565b60008484015250505050565b6000601f19601f8301169050919050565b60006115fb82611599565b61160581856115a4565b93506116158185602086016115b5565b61161e816115df565b840191505092915050565b60006101808201905061163f600083018f61146f565b61164c602083018e61146f565b611659604083018d61158a565b818103606083015261166b818c6115f0565b9050818103608083015261167f818b6115f0565b905081810360a0830152611693818a6115f0565b90506116a260c083018961146f565b81810360e08301526116b481886115f0565b90506116c461010083018761146f565b8181036101208301526116d781866115f0565b90508181036101408301526116ec81856115f0565b90506116fc61016083018461146f565b9d9c50505050505050505050505050565b60008115159050919050565b6117228161170d565b82525050565b60006101808201905061173e600083018f61146f565b8181036020830152611750818e6115f0565b90508181036040830152611764818d6115f0565b90508181036060830152611778818c6115f0565b9050818103608083015261178c818b6115f0565b905081810360a08301526117a0818a6115f0565b905081810360c08301526117b481896115f0565b90506117c360e083018861146f565b6117d161010083018761146f565b6117df61012083018661146f565b6117ed610140830185611719565b6117fb61016083018461158a565b9d9c50505050505050505050505050565b600080fd5b600080fd5b7f4e487b7100000000000000000000000000000000000000000000000000000000600052604160045260246000fd5b61184e826115df565b810181811067ffffffffffffffff8211171561186d5761186c611816565b5b80604052505050565b60006118806113f8565b905061188c8282611845565b919050565b600067ffffffffffffffff8211156118ac576118ab611816565b5b6118b5826115df565b9050602081019050919050565b82818337600083830152505050565b60006118e46118df84611891565b611876565b905082815260208101848484011115611900576118ff611811565b5b61190b8482856118c2565b509392505050565b600082601f8301126119285761192761180c565b5b81356119388482602086016118d1565b91505092915050565b60008060008060008060008060006101208a8c03121561196457611963611402565b5b60008a013567ffffffffffffffff81111561198257611981611407565b5b61198e8c828d01611913565b99505060208a013567ffffffffffffffff8111156119af576119ae611407565b5b6119bb8c828d01611913565b98505060408a013567ffffffffffffffff8111156119dc576119db611407565b5b6119e88c828d01611913565b97505060608a013567ffffffffffffffff811115611a0957611a08611407565b5b611a158c828d01611913565b96505060808a013567ffffffffffffffff811115611a3657611a35611407565b5b611a428c828d01611913565b95505060a08a013567ffffffffffffffff811115611a6357611a62611407565b5b611a6f8c828d01611913565b94505060c0611a808c828d0161142d565b93505060e0611a918c828d0161142d565b925050610100611aa38c828d0161142d565b9150509295985092959850929598565b6000806000806000806000806000806101408b8d031215611ad757611ad6611402565b5b6000611ae58d828e0161142d565b9a50506020611af68d828e016114e2565b99505060408b013567ffffffffffffffff811115611b1757611b16611407565b5b611b238d828e01611913565b98505060608b013567ffffffffffffffff811115611b4457611b43611407565b5b611b508d828e01611913565b97505060808b013567ffffffffffffffff811115611b7157611b70611407565b5b611b7d8d828e01611913565b96505060a0611b8e8d828e0161142d565b95505060c08b013567ffffffffffffffff811115611baf57611bae611407565b5b611bbb8d828e01611913565b94505060e0611bcc8d828e0161142d565b9350506101008b013567ffffffffffffffff811115611bee57611bed611407565b5b611bfa8d828e01611913565b9250506101208b013567ffffffffffffffff811115611c1c57611c1b611407565b5b611c288d828e01611913565b9150509295989b9194979a5092959850565b7f54656e64657220616c726561647920636c6f7365640000000000000000000000600082015250565b6000611c706015836115a4565b9150611c7b82611c3a565b602082019050919050565b60006020820190508181036000830152611c9f81611c63565b9050919050565b7f54656e646572206e6f7420636c6f736564000000000000000000000000000000600082015250565b6000611cdc6011836115a4565b9150611ce782611ca6565b602082019050919050565b60006020820190508181036000830152611d0b81611ccf565b9050919050565b7f4e6f2062696473207375626d6974746564000000000000000000000000000000600082015250565b6000611d486011836115a4565b9150611d5382611d12565b602082019050919050565b60006020820190508181036000830152611d7781611d3b565b9050919050565b7f4e487b7100000000000000000000000000000000000000000000000000000000600052603260045260246000fd5b7f4e487b7100000000000000000000000000000000000000000000000000000000600052601160045260246000fd5b6000611de78261140c565b91507fffffffffffffffffffffffffffffffffffffffffffffffffffffffffffffffff8203611e1957611e18611dad565b5b600182019050919050565b7f4e487b7100000000000000000000000000000000000000000000000000000000600052602260045260246000fd5b60006002820490506001821680611e6b57607f821691505b602082108103611e7e57611e7d611e24565b5b50919050565b60008190508160005260206000209050919050565b60006020601f8301049050919050565b600082821b905092915050565b600060088302611ee67fffffffffffffffffffffffffffffffffffffffffffffffffffffffffffffffff82611ea9565b611ef08683611ea9565b95508019841693508086168417925050509392505050565b6000819050919050565b6000611f2d611f28611f238461140c565b611f08565b61140c565b9050919050565b6000819050919050565b611f4783611f12565b611f5b611f5382611f34565b848454611eb6565b825550505050565b600090565b611f70611f63565b611f7b818484611f3e565b505050565b5b81811015611f9f57611f94600082611f68565b600181019050611f81565b5050565b601f821115611fe457611fb581611e84565b611fbe84611e99565b81016020851015611fcd578190505b611fe1611fd985611e99565b830182611f80565b50505b505050565b600082821c905092915050565b600061200760001984600802611fe9565b1980831691505092915050565b60006120208383611ff6565b9150826002028217905092915050565b61203982611599565b67ffffffffffffffff81111561205257612051611816565b5b61205c8254611e53565b612067828285611fa3565b600060209050601f83116001811461209a5760008415612088578287015190505b6120928582612014565b8655506120fa565b601f1984166120a886611e84565b60005b828110156120d0578489015182556001820191506020850194506020810190506120ab565b868310156120ed57848901516120e9601f891682611ff6565b8355505b6001600288020188555050505b505050505050565b7f54686520416464726573732073686f756c64206e6f7420626520656d7074792e600082015250565b60006121386020836115a4565b915061214382612102565b602082019050919050565b600060208201905081810360008301526121678161212b565b9050919050565b7f54686520436f6e74726163742073686f756c642062652063616c6c656420627960008201527f20746865204170706c6963616e74206164647265737321000000000000000000602082015250565b60006121ca6037836115a4565b91506121d58261216e565b604082019050919050565b600060208201905081810360008301526121f9816121bd565b9050919050565b7f546865206d6574616d61736b20616464726573732063616e277420626520656d60008201527f7074792100000000000000000000000000000000000000000000000000000000602082015250565b600061225c6024836115a4565b915061226782612200565b604082019050919050565b6000602082019050818103600083015261228b8161224f565b9050919050565b7f506c6561736520656e746572207468652074656e6465722069642e0000000000600082015250565b60006122c8601b836115a4565b91506122d382612292565b602082019050919050565b600060208201905081810360008301526122f7816122bb565b9050919050565b7f54656e64657220636c6f73656400000000000000000000000000000000000000600082015250565b6000612334600d836115a4565b915061233f826122fe565b602082019050919050565b6000602082019050818103600083015261236381612327565b905091905056fea264697066735822122079f4bfa820f558bb788feae21da17853ec82ad954ef4a84854b9a39985e01f2d64736f6c63430008110033",
  "linkReferences": {},
  "deployedLinkReferences": {}
}