{
  "_format": "hh-sol-artifact-1",
  "contractName": "TrademarkApplication",
  "sourceName": "contracts/TrademarkApplication.sol",
  "abi": [
    {
      "anonymous": false,
      "inputs": [
        {
          "indexed": false,
          "internalType": "uint256",
          "name": "id",
          "type": "uint256"
        }
      ],
      "name": "tkn",
      "type": "event"
    },
    {
      "inputs": [
        {
          "internalType": "uint256",
          "name": "",
          "type": "uint256"
        }
      ],
      "name": "applicants",
      "outputs": [
        {
          "internalType": "uint256",
          "name": "token",
          "type": "uint256"
        },
        {
          "internalType": "address payable",
          "name": "applicant",
          "type": "address"
        },
        {
          "internalType": "uint256",
          "name": "aadharNo",
          "type": "uint256"
        },
        {
          "internalType": "string",
          "name": "name",
          "type": "string"
        },
        {
          "internalType": "string",
          "name": "addr",
          "type": "string"
        },
        {
          "internalType": "string",
          "name": "state",
          "type": "string"
        },
        {
          "internalType": "uint256",
          "name": "contact",
          "type": "uint256"
        },
        {
          "internalType": "bool",
          "name": "signed",
          "type": "bool"
        },
        {
          "internalType": "enum TrademarkApplication.State",
          "name": "se",
          "type": "uint8"
        }
      ],
      "stateMutability": "view",
      "type": "function"
    },
    {
      "inputs": [
        {
          "internalType": "uint256",
          "name": "_id",
          "type": "uint256"
        }
      ],
      "name": "approve",
      "outputs": [],
      "stateMutability": "nonpayable",
      "type": "function"
    },
    {
      "inputs": [
        {
          "internalType": "uint256",
          "name": "_index",
          "type": "uint256"
        }
      ],
      "name": "getApproved",
      "outputs": [
        {
          "internalType": "bool",
          "name": "",
          "type": "bool"
        }
      ],
      "stateMutability": "view",
      "type": "function"
    },
    {
      "inputs": [
        {
          "internalType": "uint256",
          "name": "_index",
          "type": "uint256"
        }
      ],
      "name": "getRejected",
      "outputs": [
        {
          "internalType": "bool",
          "name": "",
          "type": "bool"
        }
      ],
      "stateMutability": "view",
      "type": "function"
    },
    {
      "inputs": [
        {
          "internalType": "uint256",
          "name": "_index",
          "type": "uint256"
        }
      ],
      "name": "getSigned",
      "outputs": [
        {
          "internalType": "bool",
          "name": "",
          "type": "bool"
        }
      ],
      "stateMutability": "view",
      "type": "function"
    },
    {
      "inputs": [
        {
          "internalType": "uint256",
          "name": "_id",
          "type": "uint256"
        }
      ],
      "name": "reject",
      "outputs": [],
      "stateMutability": "nonpayable",
      "type": "function"
    },
    {
      "inputs": [
        {
          "internalType": "address",
          "name": "_applicant",
          "type": "address"
        },
        {
          "internalType": "uint256",
          "name": "_aadharNo",
          "type": "uint256"
        },
        {
          "internalType": "string",
          "name": "_name",
          "type": "string"
        },
        {
          "internalType": "string",
          "name": "_address",
          "type": "string"
        },
        {
          "internalType": "string",
          "name": "_state",
          "type": "string"
        },
        {
          "internalType": "uint256",
          "name": "_contact",
          "type": "uint256"
        }
      ],
      "name": "submitApplication",
      "outputs": [],
      "stateMutability": "payable",
      "type": "function"
    },
    {
      "inputs": [],
      "name": "total_trademark",
      "outputs": [
        {
          "internalType": "uint256",
          "name": "",
          "type": "uint256"
        }
      ],
      "stateMutability": "view",
      "type": "function"
    },
    {
      "inputs": [
        {
          "internalType": "uint256",
          "name": "_token",
          "type": "uint256"
        },
        {
          "internalType": "address payable",
          "name": "_applicant",
          "type": "address"
        },
        {
          "internalType": "string",
          "name": "_tName",
          "type": "string"
        },
        {
          "internalType": "string",
          "name": "_tClass",
          "type": "string"
        },
        {
          "internalType": "string",
          "name": "_tDesc",
          "type": "string"
        }
      ],
      "name": "trademarkApplication",
      "outputs": [],
      "stateMutability": "nonpayable",
      "type": "function"
    },
    {
      "inputs": [
        {
          "internalType": "uint256",
          "name": "",
          "type": "uint256"
        }
      ],
      "name": "trademarks",
      "outputs": [
        {
          "internalType": "uint256",
          "name": "token",
          "type": "uint256"
        },
        {
          "internalType": "address payable",
          "name": "applicant",
          "type": "address"
        },
        {
          "internalType": "string",
          "name": "trademarkName",
          "type": "string"
        },
        {
          "internalType": "string",
          "name": "trademarkClass",
          "type": "string"
        },
        {
          "internalType": "string",
          "name": "trademarkDescription",
          "type": "string"
        },
        {
          "internalType": "uint256",
          "name": "createdTime",
          "type": "uint256"
        }
      ],
      "stateMutability": "view",
      "type": "function"
    }
  ],
  "bytecode": "0x60806040526000600155600060025534801561001a57600080fd5b506118638061002a6000396000f3fe6080604052600436106100915760003560e01c806381734b511161005957806381734b51146101d457806381e2062a146101fd578063a1073b5414610219578063b759f95414610244578063b8adaa111461026d57610091565b8063081812fc1461009657806326d11a21146100d35780632ea9f2411461011057806362f4c26b1461015257806363de53231461018f575b600080fd5b3480156100a257600080fd5b506100bd60048036038101906100b89190610d32565b610296565b6040516100ca9190610d7a565b60405180910390f35b3480156100df57600080fd5b506100fa60048036038101906100f59190610d32565b6102fa565b6040516101079190610d7a565b60405180910390f35b34801561011c57600080fd5b5061013760048036038101906101329190610d32565b61033e565b60405161014996959493929190610e75565b60405180910390f35b34801561015e57600080fd5b5061017960048036038101906101749190610d32565b610532565b6040516101869190610d7a565b60405180910390f35b34801561019b57600080fd5b506101b660048036038101906101b19190610d32565b610595565b6040516101cb99989796959493929190610f62565b60405180910390f35b3480156101e057600080fd5b506101fb60048036038101906101f69190611165565b6107b5565b005b61021760048036038101906102129190611272565b610971565b005b34801561022557600080fd5b5061022e610c5e565b60405161023b9190611353565b60405180910390f35b34801561025057600080fd5b5061026b60048036038101906102669190610d32565b610c64565b005b34801561027957600080fd5b50610294600480360381019061028f9190610d32565b610ca6565b005b6000600160028111156102ac576102ab610eeb565b5b6003600084815260200190815260200160002060070160019054906101000a900460ff1660028111156102e2576102e1610eeb565b5b036102f057600190506102f5565b600090505b919050565b6000600115156003600084815260200190815260200160002060070160009054906101000a900460ff161515036103345760019050610339565b600090505b919050565b60046020528060005260406000206000915090508060000154908060010160009054906101000a900473ffffffffffffffffffffffffffffffffffffffff169080600201805461038d9061139d565b80601f01602080910402602001604051908101604052809291908181526020018280546103b99061139d565b80156104065780601f106103db57610100808354040283529160200191610406565b820191906000526020600020905b8154815290600101906020018083116103e957829003601f168201915b50505050509080600301805461041b9061139d565b80601f01602080910402602001604051908101604052809291908181526020018280546104479061139d565b80156104945780601f1061046957610100808354040283529160200191610494565b820191906000526020600020905b81548152906001019060200180831161047757829003601f168201915b5050505050908060040180546104a99061139d565b80601f01602080910402602001604051908101604052809291908181526020018280546104d59061139d565b80156105225780601f106104f757610100808354040283529160200191610522565b820191906000526020600020905b81548152906001019060200180831161050557829003601f168201915b5050505050908060050154905086565b600060028081111561054757610546610eeb565b5b6003600084815260200190815260200160002060070160019054906101000a900460ff16600281111561057d5761057c610eeb565b5b0361058b5760019050610590565b600090505b919050565b60036020528060005260406000206000915090508060000154908060010160009054906101000a900473ffffffffffffffffffffffffffffffffffffffff16908060020154908060030180546105ea9061139d565b80601f01602080910402602001604051908101604052809291908181526020018280546106169061139d565b80156106635780601f1061063857610100808354040283529160200191610663565b820191906000526020600020905b81548152906001019060200180831161064657829003601f168201915b5050505050908060040180546106789061139d565b80601f01602080910402602001604051908101604052809291908181526020018280546106a49061139d565b80156106f15780601f106106c6576101008083540402835291602001916106f1565b820191906000526020600020905b8154815290600101906020018083116106d457829003601f168201915b5050505050908060050180546107069061139d565b80601f01602080910402602001604051908101604052809291908181526020018280546107329061139d565b801561077f5780601f106107545761010080835404028352916020019161077f565b820191906000526020600020905b81548152906001019060200180831161076257829003601f168201915b5050505050908060060154908060070160009054906101000a900460ff16908060070160019054906101000a900460ff16905089565b600073ffffffffffffffffffffffffffffffffffffffff163373ffffffffffffffffffffffffffffffffffffffff16036107ee57600080fd5b8373ffffffffffffffffffffffffffffffffffffffff163373ffffffffffffffffffffffffffffffffffffffff161461085c576040517f08c379a00000000000000000000000000000000000000000000000000000000081526004016108539061141a565b60405180910390fd5b6040518060c001604052808681526020018573ffffffffffffffffffffffffffffffffffffffff16815260200184815260200183815260200182815260200142815250600460008781526020019081526020016000206000820151816000015560208201518160010160006101000a81548173ffffffffffffffffffffffffffffffffffffffff021916908373ffffffffffffffffffffffffffffffffffffffff160217905550604082015181600201908161091891906115e6565b50606082015181600301908161092e91906115e6565b50608082015181600401908161094491906115e6565b5060a0820151816005015590505060026000815480929190610965906116e7565b91905055505050505050565b600073ffffffffffffffffffffffffffffffffffffffff163373ffffffffffffffffffffffffffffffffffffffff16036109aa57600080fd5b8573ffffffffffffffffffffffffffffffffffffffff163373ffffffffffffffffffffffffffffffffffffffff1614610a18576040517f08c379a0000000000000000000000000000000000000000000000000000000008152600401610a0f906117a1565b60405180910390fd5b600073ffffffffffffffffffffffffffffffffffffffff168673ffffffffffffffffffffffffffffffffffffffff1603610a87576040517f08c379a0000000000000000000000000000000000000000000000000000000008152600401610a7e9061180d565b60405180910390fd5b60016000815480929190610a9a906116e7565b919050555060405180610120016040528060015481526020018773ffffffffffffffffffffffffffffffffffffffff16815260200186815260200185815260200184815260200183815260200182815260200160011515815260200160006002811115610b0a57610b09610eeb565b5b8152506003600060015481526020019081526020016000206000820151816000015560208201518160010160006101000a81548173ffffffffffffffffffffffffffffffffffffffff021916908373ffffffffffffffffffffffffffffffffffffffff160217905550604082015181600201556060820151816003019081610b9291906115e6565b506080820151816004019081610ba891906115e6565b5060a0820151816005019081610bbe91906115e6565b5060c0820151816006015560e08201518160070160006101000a81548160ff0219169083151502179055506101008201518160070160016101000a81548160ff02191690836002811115610c1557610c14610eeb565b5b02179055509050507fe6b6123bdb3375cae14853ed23c85466ea27e73f226309f4f1447bb9c75e1ac1600154604051610c4e9190611353565b60405180910390a1505050505050565b60025481565b60016003600083815260200190815260200160002060070160016101000a81548160ff02191690836002811115610c9e57610c9d610eeb565b5b021790555050565b60026003600083815260200190815260200160002060070160016101000a81548160ff02191690836002811115610ce057610cdf610eeb565b5b021790555050565b6000604051905090565b600080fd5b600080fd5b6000819050919050565b610d0f81610cfc565b8114610d1a57600080fd5b50565b600081359050610d2c81610d06565b92915050565b600060208284031215610d4857610d47610cf2565b5b6000610d5684828501610d1d565b91505092915050565b60008115159050919050565b610d7481610d5f565b82525050565b6000602082019050610d8f6000830184610d6b565b92915050565b610d9e81610cfc565b82525050565b600073ffffffffffffffffffffffffffffffffffffffff82169050919050565b6000610dcf82610da4565b9050919050565b610ddf81610dc4565b82525050565b600081519050919050565b600082825260208201905092915050565b60005b83811015610e1f578082015181840152602081019050610e04565b60008484015250505050565b6000601f19601f8301169050919050565b6000610e4782610de5565b610e518185610df0565b9350610e61818560208601610e01565b610e6a81610e2b565b840191505092915050565b600060c082019050610e8a6000830189610d95565b610e976020830188610dd6565b8181036040830152610ea98187610e3c565b90508181036060830152610ebd8186610e3c565b90508181036080830152610ed18185610e3c565b9050610ee060a0830184610d95565b979650505050505050565b7f4e487b7100000000000000000000000000000000000000000000000000000000600052602160045260246000fd5b60038110610f2b57610f2a610eeb565b5b50565b6000819050610f3c82610f1a565b919050565b6000610f4c82610f2e565b9050919050565b610f5c81610f41565b82525050565b600061012082019050610f78600083018c610d95565b610f85602083018b610dd6565b610f92604083018a610d95565b8181036060830152610fa48189610e3c565b90508181036080830152610fb88188610e3c565b905081810360a0830152610fcc8187610e3c565b9050610fdb60c0830186610d95565b610fe860e0830185610d6b565b610ff6610100830184610f53565b9a9950505050505050505050565b61100d81610dc4565b811461101857600080fd5b50565b60008135905061102a81611004565b92915050565b600080fd5b600080fd5b7f4e487b7100000000000000000000000000000000000000000000000000000000600052604160045260246000fd5b61107282610e2b565b810181811067ffffffffffffffff821117156110915761109061103a565b5b80604052505050565b60006110a4610ce8565b90506110b08282611069565b919050565b600067ffffffffffffffff8211156110d0576110cf61103a565b5b6110d982610e2b565b9050602081019050919050565b82818337600083830152505050565b6000611108611103846110b5565b61109a565b90508281526020810184848401111561112457611123611035565b5b61112f8482856110e6565b509392505050565b600082601f83011261114c5761114b611030565b5b813561115c8482602086016110f5565b91505092915050565b600080600080600060a0868803121561118157611180610cf2565b5b600061118f88828901610d1d565b95505060206111a08882890161101b565b945050604086013567ffffffffffffffff8111156111c1576111c0610cf7565b5b6111cd88828901611137565b935050606086013567ffffffffffffffff8111156111ee576111ed610cf7565b5b6111fa88828901611137565b925050608086013567ffffffffffffffff81111561121b5761121a610cf7565b5b61122788828901611137565b9150509295509295909350565b600061123f82610da4565b9050919050565b61124f81611234565b811461125a57600080fd5b50565b60008135905061126c81611246565b92915050565b60008060008060008060c0878903121561128f5761128e610cf2565b5b600061129d89828a0161125d565b96505060206112ae89828a01610d1d565b955050604087013567ffffffffffffffff8111156112cf576112ce610cf7565b5b6112db89828a01611137565b945050606087013567ffffffffffffffff8111156112fc576112fb610cf7565b5b61130889828a01611137565b935050608087013567ffffffffffffffff81111561132957611328610cf7565b5b61133589828a01611137565b92505060a061134689828a01610d1d565b9150509295509295509295565b60006020820190506113686000830184610d95565b92915050565b7f4e487b7100000000000000000000000000000000000000000000000000000000600052602260045260246000fd5b600060028204905060018216806113b557607f821691505b6020821081036113c8576113c761136e565b5b50919050565b7f43616e206265207369676e6564206f6e6c79206279206170706c6963616e7400600082015250565b6000611404601f83610df0565b915061140f826113ce565b602082019050919050565b60006020820190508181036000830152611433816113f7565b9050919050565b60008190508160005260206000209050919050565b60006020601f8301049050919050565b600082821b905092915050565b60006008830261149c7fffffffffffffffffffffffffffffffffffffffffffffffffffffffffffffffff8261145f565b6114a6868361145f565b95508019841693508086168417925050509392505050565b6000819050919050565b60006114e36114de6114d984610cfc565b6114be565b610cfc565b9050919050565b6000819050919050565b6114fd836114c8565b611511611509826114ea565b84845461146c565b825550505050565b600090565b611526611519565b6115318184846114f4565b505050565b5b818110156115555761154a60008261151e565b600181019050611537565b5050565b601f82111561159a5761156b8161143a565b6115748461144f565b81016020851015611583578190505b61159761158f8561144f565b830182611536565b50505b505050565b600082821c905092915050565b60006115bd6000198460080261159f565b1980831691505092915050565b60006115d683836115ac565b9150826002028217905092915050565b6115ef82610de5565b67ffffffffffffffff8111156116085761160761103a565b5b611612825461139d565b61161d828285611559565b600060209050601f831160018114611650576000841561163e578287015190505b61164885826115ca565b8655506116b0565b601f19841661165e8661143a565b60005b8281101561168657848901518255600182019150602085019450602081019050611661565b868310156116a3578489015161169f601f8916826115ac565b8355505b6001600288020188555050505b505050505050565b7f4e487b7100000000000000000000000000000000000000000000000000000000600052601160045260246000fd5b60006116f282610cfc565b91507fffffffffffffffffffffffffffffffffffffffffffffffffffffffffffffffff8203611724576117236116b8565b5b600182019050919050565b7f54686520436f6e74726163742073686f756c642062652063616c6c656420627960008201527f20746865204170706c6963616e74206164647265737321000000000000000000602082015250565b600061178b603783610df0565b91506117968261172f565b604082019050919050565b600060208201905081810360008301526117ba8161177e565b9050919050565b7f546865206164647265737365732063616e277420626520656d70747921000000600082015250565b60006117f7601d83610df0565b9150611802826117c1565b602082019050919050565b60006020820190508181036000830152611826816117ea565b905091905056fea26469706673582212202bc7a6f650ee3199ed1609e1e4fd6a4d168c22c657c148b1e12c802fa3fd49f664736f6c63430008110033",
  "linkReferences": {},
  "deployedLinkReferences": {}
}